{
  "contractName": "ZombieFactory",
  "abi": [
    {
      "anonymous": false,
      "inputs": [
        {
          "indexed": false,
          "internalType": "uint256",
          "name": "zombieId",
          "type": "uint256"
        },
        {
          "indexed": false,
          "internalType": "string",
          "name": "name",
          "type": "string"
        },
        {
          "indexed": false,
          "internalType": "uint256",
          "name": "dna",
          "type": "uint256"
        }
      ],
      "name": "NewZombie",
      "type": "event"
    },
    {
      "anonymous": false,
      "inputs": [
        {
          "indexed": true,
          "internalType": "address",
          "name": "previousOwner",
          "type": "address"
        },
        {
          "indexed": true,
          "internalType": "address",
          "name": "newOwner",
          "type": "address"
        }
      ],
      "name": "OwnershipTransferred",
      "type": "event"
    },
    {
      "inputs": [],
      "name": "owner",
      "outputs": [
        {
          "internalType": "address",
          "name": "",
          "type": "address"
        }
      ],
      "stateMutability": "view",
      "type": "function"
    },
    {
      "inputs": [],
      "name": "renounceOwnership",
      "outputs": [],
      "stateMutability": "nonpayable",
      "type": "function"
    },
    {
      "inputs": [
        {
          "internalType": "address",
          "name": "newOwner",
          "type": "address"
        }
      ],
      "name": "transferOwnership",
      "outputs": [],
      "stateMutability": "nonpayable",
      "type": "function"
    },
    {
      "inputs": [
        {
          "internalType": "uint256",
          "name": "",
          "type": "uint256"
        }
      ],
      "name": "zombieToOwner",
      "outputs": [
        {
          "internalType": "address",
          "name": "",
          "type": "address"
        }
      ],
      "stateMutability": "view",
      "type": "function"
    },
    {
      "inputs": [
        {
          "internalType": "uint256",
          "name": "",
          "type": "uint256"
        }
      ],
      "name": "zombies",
      "outputs": [
        {
          "internalType": "string",
          "name": "name",
          "type": "string"
        },
        {
          "internalType": "uint256",
          "name": "dna",
          "type": "uint256"
        },
        {
          "internalType": "uint32",
          "name": "level",
          "type": "uint32"
        },
        {
          "internalType": "uint32",
          "name": "readyTime",
          "type": "uint32"
        },
        {
          "internalType": "uint16",
          "name": "winCount",
          "type": "uint16"
        },
        {
          "internalType": "uint16",
          "name": "lossCount",
          "type": "uint16"
        }
      ],
      "stateMutability": "view",
      "type": "function"
    },
    {
      "inputs": [
        {
          "internalType": "string",
          "name": "_name",
          "type": "string"
        }
      ],
      "name": "createRandomZombie",
      "outputs": [],
      "stateMutability": "nonpayable",
      "type": "function"
    }
  ],
  "bytecode": "0x60806040526010600155600154600a6200001a9190620002b1565b600255620151806003553480156200003157600080fd5b5062000052620000466200005860201b60201c565b6200006060201b60201c565b62000302565b600033905090565b60008060009054906101000a900473ffffffffffffffffffffffffffffffffffffffff169050816000806101000a81548173ffffffffffffffffffffffffffffffffffffffff021916908373ffffffffffffffffffffffffffffffffffffffff1602179055508173ffffffffffffffffffffffffffffffffffffffff168173ffffffffffffffffffffffffffffffffffffffff167f8be0079c531659141344cd1fd0a4f28419497f9722a3daafe3b4186f6b6457e060405160405180910390a35050565b7f4e487b7100000000000000000000000000000000000000000000000000000000600052601160045260246000fd5b60008160011c9050919050565b6000808291508390505b6001851115620001b2578086048111156200018a576200018962000124565b5b60018516156200019a5780820291505b8081029050620001aa8562000153565b94506200016a565b94509492505050565b600082620001cd5760019050620002a0565b81620001dd5760009050620002a0565b8160018114620001f65760028114620002015762000237565b6001915050620002a0565b60ff84111562000216576200021562000124565b5b8360020a91508482111562000230576200022f62000124565b5b50620002a0565b5060208310610133831016604e8410600b8410161715620002715782820a9050838111156200026b576200026a62000124565b5b620002a0565b62000280848484600162000160565b925090508184048111156200029a576200029962000124565b5b81810290505b9392505050565b6000819050919050565b6000620002be82620002a7565b9150620002cb83620002a7565b9250620002fa7fffffffffffffffffffffffffffffffffffffffffffffffffffffffffffffffff8484620001bb565b905092915050565b61100180620003126000396000f3fe608060405234801561001057600080fd5b50600436106100625760003560e01c80632052465e14610067578063528b7b8f1461009c578063715018a6146100cc5780637bff0a01146100d65780638da5cb5b146100f2578063f2fde38b14610110575b600080fd5b610081600480360381019061007c91906108cd565b61012c565b604051610093969594939291906109de565b60405180910390f35b6100b660048036038101906100b191906108cd565b61023c565b6040516100c39190610a87565b60405180910390f35b6100d461026f565b005b6100f060048036038101906100eb9190610bd7565b6102f7565b005b6100fa610378565b6040516101079190610a87565b60405180910390f35b61012a60048036038101906101259190610c4c565b6103a1565b005b6004818154811061013c57600080fd5b906000526020600020906003020160009150905080600001805461015f90610ca8565b80601f016020809104026020016040519081016040528092919081815260200182805461018b90610ca8565b80156101d85780601f106101ad576101008083540402835291602001916101d8565b820191906000526020600020905b8154815290600101906020018083116101bb57829003601f168201915b5050505050908060010154908060020160009054906101000a900463ffffffff16908060020160049054906101000a900463ffffffff16908060020160089054906101000a900461ffff169080600201600a9054906101000a900461ffff16905086565b60056020528060005260406000206000915054906101000a900473ffffffffffffffffffffffffffffffffffffffff1681565b610277610499565b73ffffffffffffffffffffffffffffffffffffffff16610295610378565b73ffffffffffffffffffffffffffffffffffffffff16146102eb576040517f08c379a00000000000000000000000000000000000000000000000000000000081526004016102e290610d26565b60405180910390fd5b6102f560006104a1565b565b6000600660003373ffffffffffffffffffffffffffffffffffffffff1673ffffffffffffffffffffffffffffffffffffffff168152602001908152602001600020541461034357600080fd5b600061034e82610565565b905060648161035d9190610d75565b816103689190610dd5565b905061037482826105aa565b5050565b60008060009054906101000a900473ffffffffffffffffffffffffffffffffffffffff16905090565b6103a9610499565b73ffffffffffffffffffffffffffffffffffffffff166103c7610378565b73ffffffffffffffffffffffffffffffffffffffff161461041d576040517f08c379a000000000000000000000000000000000000000000000000000000000815260040161041490610d26565b60405180910390fd5b600073ffffffffffffffffffffffffffffffffffffffff168173ffffffffffffffffffffffffffffffffffffffff16141561048d576040517f08c379a000000000000000000000000000000000000000000000000000000000815260040161048490610e7b565b60405180910390fd5b610496816104a1565b50565b600033905090565b60008060009054906101000a900473ffffffffffffffffffffffffffffffffffffffff169050816000806101000a81548173ffffffffffffffffffffffffffffffffffffffff021916908373ffffffffffffffffffffffffffffffffffffffff1602179055508173ffffffffffffffffffffffffffffffffffffffff168173ffffffffffffffffffffffffffffffffffffffff167f8be0079c531659141344cd1fd0a4f28419497f9722a3daafe3b4186f6b6457e060405160405180910390a35050565b600080826040516020016105799190610ed7565b6040516020818303038152906040528051906020012060001c9050600254816105a29190610d75565b915050919050565b60046040518060c00160405280848152602001838152602001600163ffffffff168152602001600354426105de9190610eee565b63ffffffff168152602001600061ffff168152602001600061ffff16815250908060018154018082558091505060019003906000526020600020906003020160009091909190915060008201518160000190805190602001906106429291906107e0565b506020820151816001015560408201518160020160006101000a81548163ffffffff021916908363ffffffff16021790555060608201518160020160046101000a81548163ffffffff021916908363ffffffff16021790555060808201518160020160086101000a81548161ffff021916908361ffff16021790555060a082015181600201600a6101000a81548161ffff021916908361ffff1602179055505050600060016004805490506106f79190610dd5565b9050336005600083815260200190815260200160002060006101000a81548173ffffffffffffffffffffffffffffffffffffffff021916908373ffffffffffffffffffffffffffffffffffffffff160217905550600660003373ffffffffffffffffffffffffffffffffffffffff1673ffffffffffffffffffffffffffffffffffffffff168152602001908152602001600020600081548092919061079b90610f44565b91905055507f88f026aacbbecc90c18411df4b1185fd8d9be2470f1962f192bf84a27d0704b78184846040516107d393929190610f8d565b60405180910390a1505050565b8280546107ec90610ca8565b90600052602060002090601f01602090048101928261080e5760008555610855565b82601f1061082757805160ff1916838001178555610855565b82800160010185558215610855579182015b82811115610854578251825591602001919060010190610839565b5b5090506108629190610866565b5090565b5b8082111561087f576000816000905550600101610867565b5090565b6000604051905090565b600080fd5b600080fd5b6000819050919050565b6108aa81610897565b81146108b557600080fd5b50565b6000813590506108c7816108a1565b92915050565b6000602082840312156108e3576108e261088d565b5b60006108f1848285016108b8565b91505092915050565b600081519050919050565b600082825260208201905092915050565b60005b83811015610934578082015181840152602081019050610919565b83811115610943576000848401525b50505050565b6000601f19601f8301169050919050565b6000610965826108fa565b61096f8185610905565b935061097f818560208601610916565b61098881610949565b840191505092915050565b61099c81610897565b82525050565b600063ffffffff82169050919050565b6109bb816109a2565b82525050565b600061ffff82169050919050565b6109d8816109c1565b82525050565b600060c08201905081810360008301526109f8818961095a565b9050610a076020830188610993565b610a1460408301876109b2565b610a2160608301866109b2565b610a2e60808301856109cf565b610a3b60a08301846109cf565b979650505050505050565b600073ffffffffffffffffffffffffffffffffffffffff82169050919050565b6000610a7182610a46565b9050919050565b610a8181610a66565b82525050565b6000602082019050610a9c6000830184610a78565b92915050565b600080fd5b600080fd5b7f4e487b7100000000000000000000000000000000000000000000000000000000600052604160045260246000fd5b610ae482610949565b810181811067ffffffffffffffff82111715610b0357610b02610aac565b5b80604052505050565b6000610b16610883565b9050610b228282610adb565b919050565b600067ffffffffffffffff821115610b4257610b41610aac565b5b610b4b82610949565b9050602081019050919050565b82818337600083830152505050565b6000610b7a610b7584610b27565b610b0c565b905082815260208101848484011115610b9657610b95610aa7565b5b610ba1848285610b58565b509392505050565b600082601f830112610bbe57610bbd610aa2565b5b8135610bce848260208601610b67565b91505092915050565b600060208284031215610bed57610bec61088d565b5b600082013567ffffffffffffffff811115610c0b57610c0a610892565b5b610c1784828501610ba9565b91505092915050565b610c2981610a66565b8114610c3457600080fd5b50565b600081359050610c4681610c20565b92915050565b600060208284031215610c6257610c6161088d565b5b6000610c7084828501610c37565b91505092915050565b7f4e487b7100000000000000000000000000000000000000000000000000000000600052602260045260246000fd5b60006002820490506001821680610cc057607f821691505b60208210811415610cd457610cd3610c79565b5b50919050565b7f4f776e61626c653a2063616c6c6572206973206e6f7420746865206f776e6572600082015250565b6000610d10602083610905565b9150610d1b82610cda565b602082019050919050565b60006020820190508181036000830152610d3f81610d03565b9050919050565b7f4e487b7100000000000000000000000000000000000000000000000000000000600052601260045260246000fd5b6000610d8082610897565b9150610d8b83610897565b925082610d9b57610d9a610d46565b5b828206905092915050565b7f4e487b7100000000000000000000000000000000000000000000000000000000600052601160045260246000fd5b6000610de082610897565b9150610deb83610897565b925082821015610dfe57610dfd610da6565b5b828203905092915050565b7f4f776e61626c653a206e6577206f776e657220697320746865207a65726f206160008201527f6464726573730000000000000000000000000000000000000000000000000000602082015250565b6000610e65602683610905565b9150610e7082610e09565b604082019050919050565b60006020820190508181036000830152610e9481610e58565b9050919050565b600081905092915050565b6000610eb1826108fa565b610ebb8185610e9b565b9350610ecb818560208601610916565b80840191505092915050565b6000610ee38284610ea6565b915081905092915050565b6000610ef982610897565b9150610f0483610897565b9250827fffffffffffffffffffffffffffffffffffffffffffffffffffffffffffffffff03821115610f3957610f38610da6565b5b828201905092915050565b6000610f4f82610897565b91507fffffffffffffffffffffffffffffffffffffffffffffffffffffffffffffffff821415610f8257610f81610da6565b5b600182019050919050565b6000606082019050610fa26000830186610993565b8181036020830152610fb4818561095a565b9050610fc36040830184610993565b94935050505056fea2646970667358221220f1e29097fff94c0ba508714cc3ff3c888923b7c1132ac64f8e0ee03591d8140f64736f6c634300080c0033",
  "immutableReferences": {},
  "source": "// SPDX-License-Identifier: MIT\n\npragma solidity >=0.8.0 <0.9.0;\n\nimport \"../utils/ownable.sol\";\n\ncontract ZombieFactory is Ownable {\n\n  event NewZombie(uint zombieId, string name, uint dna);\n\n  uint dnaDigits = 16;\n  uint dnaModulus = 10 ** dnaDigits;\n  uint cooldownTime = 1 days;\n\n  struct Zombie {\n    string name;\n    uint dna;\n    uint32 level;\n    uint32 readyTime;\n    uint16 winCount;\n    uint16 lossCount;\n  }\n\n  Zombie[] public zombies;\n\n  mapping (uint => address) public zombieToOwner;\n  mapping (address => uint) ownerZombieCount;\n\n  function _createZombie(string memory _name, uint _dna) internal {\n    zombies.push(Zombie(_name, _dna, 1, uint32(block.timestamp + cooldownTime), 0, 0));\n    uint id = zombies.length - 1;\n    zombieToOwner[id] = msg.sender;\n    ownerZombieCount[msg.sender]++;\n    emit NewZombie(id, _name, _dna);\n  }\n\n  function _generateRandomDna(string memory _str) private view returns (uint) {\n    uint rand = uint(keccak256(abi.encodePacked(_str)));\n    return rand % dnaModulus;\n  }\n\n  function createRandomZombie(string memory _name) public {\n    require(ownerZombieCount[msg.sender] == 0);\n    uint randDna = _generateRandomDna(_name);\n    randDna = randDna - randDna % 100;\n    _createZombie(_name, randDna);\n  }\n\n}\n",
  "sourcePath": "/Users/lidoking/Desktop/Coding/Blockchain/CryptoZombiesEatLido/contracts/main/zombiefactory.sol",
  "compiler": {
    "name": "solc",
    "version": "0.8.12+commit.f00d7308.Emscripten.clang"
  },
  "schemaVersion": "3.4.5",
  "updatedAt": "2022-02-18T15:16:08.899Z",
  "devdoc": {
    "kind": "dev",
    "methods": {
      "owner()": {
        "details": "Returns the address of the current owner."
      },
      "renounceOwnership()": {
        "details": "Leaves the contract without owner. It will not be possible to call `onlyOwner` functions anymore. Can only be called by the current owner. NOTE: Renouncing ownership will leave the contract without an owner, thereby removing any functionality that is only available to the owner."
      },
      "transferOwnership(address)": {
        "details": "Transfers ownership of the contract to a new account (`newOwner`). Can only be called by the current owner."
      }
    },
    "version": 1
  },
  "userdoc": {
    "kind": "user",
    "methods": {},
    "version": 1
  }
}