{
  "contractName": "ZombieFeeding",
  "abi": [
    {
      "anonymous": false,
      "inputs": [
        {
          "indexed": false,
          "internalType": "uint256",
          "name": "zombieId",
          "type": "uint256"
        },
        {
          "indexed": false,
          "internalType": "string",
          "name": "name",
          "type": "string"
        },
        {
          "indexed": false,
          "internalType": "uint256",
          "name": "dna",
          "type": "uint256"
        }
      ],
      "name": "NewZombie",
      "type": "event"
    },
    {
      "anonymous": false,
      "inputs": [
        {
          "indexed": true,
          "internalType": "address",
          "name": "previousOwner",
          "type": "address"
        },
        {
          "indexed": true,
          "internalType": "address",
          "name": "newOwner",
          "type": "address"
        }
      ],
      "name": "OwnershipTransferred",
      "type": "event"
    },
    {
      "inputs": [
        {
          "internalType": "string",
          "name": "_name",
          "type": "string"
        }
      ],
      "name": "createRandomZombie",
      "outputs": [],
      "stateMutability": "nonpayable",
      "type": "function"
    },
    {
      "inputs": [],
      "name": "owner",
      "outputs": [
        {
          "internalType": "address",
          "name": "",
          "type": "address"
        }
      ],
      "stateMutability": "view",
      "type": "function"
    },
    {
      "inputs": [],
      "name": "renounceOwnership",
      "outputs": [],
      "stateMutability": "nonpayable",
      "type": "function"
    },
    {
      "inputs": [
        {
          "internalType": "address",
          "name": "newOwner",
          "type": "address"
        }
      ],
      "name": "transferOwnership",
      "outputs": [],
      "stateMutability": "nonpayable",
      "type": "function"
    },
    {
      "inputs": [
        {
          "internalType": "uint256",
          "name": "",
          "type": "uint256"
        }
      ],
      "name": "zombieToOwner",
      "outputs": [
        {
          "internalType": "address",
          "name": "",
          "type": "address"
        }
      ],
      "stateMutability": "view",
      "type": "function"
    },
    {
      "inputs": [
        {
          "internalType": "uint256",
          "name": "",
          "type": "uint256"
        }
      ],
      "name": "zombies",
      "outputs": [
        {
          "internalType": "string",
          "name": "name",
          "type": "string"
        },
        {
          "internalType": "uint256",
          "name": "dna",
          "type": "uint256"
        },
        {
          "internalType": "uint32",
          "name": "level",
          "type": "uint32"
        },
        {
          "internalType": "uint32",
          "name": "readyTime",
          "type": "uint32"
        },
        {
          "internalType": "uint16",
          "name": "winCount",
          "type": "uint16"
        },
        {
          "internalType": "uint16",
          "name": "lossCount",
          "type": "uint16"
        }
      ],
      "stateMutability": "view",
      "type": "function"
    },
    {
      "inputs": [
        {
          "internalType": "address",
          "name": "_address",
          "type": "address"
        }
      ],
      "name": "setKittyContractAddress",
      "outputs": [],
      "stateMutability": "nonpayable",
      "type": "function"
    },
    {
      "inputs": [
        {
          "internalType": "uint256",
          "name": "_zombieId",
          "type": "uint256"
        },
        {
          "internalType": "uint256",
          "name": "_kittyId",
          "type": "uint256"
        }
      ],
      "name": "feedOnKitty",
      "outputs": [],
      "stateMutability": "nonpayable",
      "type": "function"
    }
  ],
  "bytecode": "0x60806040526010600155600154600a6200001a9190620002b1565b600255620151806003553480156200003157600080fd5b5062000052620000466200005860201b60201c565b6200006060201b60201c565b62000302565b600033905090565b60008060009054906101000a900473ffffffffffffffffffffffffffffffffffffffff169050816000806101000a81548173ffffffffffffffffffffffffffffffffffffffff021916908373ffffffffffffffffffffffffffffffffffffffff1602179055508173ffffffffffffffffffffffffffffffffffffffff168173ffffffffffffffffffffffffffffffffffffffff167f8be0079c531659141344cd1fd0a4f28419497f9722a3daafe3b4186f6b6457e060405160405180910390a35050565b7f4e487b7100000000000000000000000000000000000000000000000000000000600052601160045260246000fd5b60008160011c9050919050565b6000808291508390505b6001851115620001b2578086048111156200018a576200018962000124565b5b60018516156200019a5780820291505b8081029050620001aa8562000153565b94506200016a565b94509492505050565b600082620001cd5760019050620002a0565b81620001dd5760009050620002a0565b8160018114620001f65760028114620002015762000237565b6001915050620002a0565b60ff84111562000216576200021562000124565b5b8360020a91508482111562000230576200022f62000124565b5b50620002a0565b5060208310610133831016604e8410600b8410161715620002715782820a9050838111156200026b576200026a62000124565b5b620002a0565b62000280848484600162000160565b925090508184048111156200029a576200029962000124565b5b81810290505b9392505050565b6000819050919050565b6000620002be82620002a7565b9150620002cb83620002a7565b9250620002fa7fffffffffffffffffffffffffffffffffffffffffffffffffffffffffffffffff8484620001bb565b905092915050565b61167c80620003126000396000f3fe608060405234801561001057600080fd5b50600436106100885760003560e01c8063715018a61161005b578063715018a61461012a5780637bff0a01146101345780638da5cb5b14610150578063f2fde38b1461016e57610088565b806317a7f4cc1461008d5780632052465e146100a9578063528b7b8f146100de5780635f4623f11461010e575b600080fd5b6100a760048036038101906100a29190610d00565b61018a565b005b6100c360048036038101906100be9190610d40565b6102a8565b6040516100d596959493929190610e51565b60405180910390f35b6100f860048036038101906100f39190610d40565b6103b8565b6040516101059190610efa565b60405180910390f35b61012860048036038101906101239190610f41565b6103eb565b005b6101326104ab565b005b61014e600480360381019061014991906110a3565b610533565b005b6101586105b4565b6040516101659190610efa565b60405180910390f35b61018860048036038101906101839190610f41565b6105dd565b005b6000600760009054906101000a900473ffffffffffffffffffffffffffffffffffffffff1673ffffffffffffffffffffffffffffffffffffffff1663e98b7f4d836040518263ffffffff1660e01b81526004016101e791906110ec565b61014060405180830381865afa158015610205573d6000803e3d6000fd5b505050506040513d601f19601f820116820180604052508101906102299190611154565b909192939495969798509091929394959697509091929394959650909192939495509091929394509091929350909192509091509050809150506102a383826040518060400160405280600581526020017f6b697474790000000000000000000000000000000000000000000000000000008152506106d5565b505050565b600481815481106102b857600080fd5b90600052602060002090600302016000915090508060000180546102db90611262565b80601f016020809104026020016040519081016040528092919081815260200182805461030790611262565b80156103545780601f1061032957610100808354040283529160200191610354565b820191906000526020600020905b81548152906001019060200180831161033757829003601f168201915b5050505050908060010154908060020160009054906101000a900463ffffffff16908060020160049054906101000a900463ffffffff16908060020160089054906101000a900461ffff169080600201600a9054906101000a900461ffff16905086565b60056020528060005260406000206000915054906101000a900473ffffffffffffffffffffffffffffffffffffffff1681565b6103f3610872565b73ffffffffffffffffffffffffffffffffffffffff166104116105b4565b73ffffffffffffffffffffffffffffffffffffffff1614610467576040517f08c379a000000000000000000000000000000000000000000000000000000000815260040161045e906112e0565b60405180910390fd5b80600760006101000a81548173ffffffffffffffffffffffffffffffffffffffff021916908373ffffffffffffffffffffffffffffffffffffffff16021790555050565b6104b3610872565b73ffffffffffffffffffffffffffffffffffffffff166104d16105b4565b73ffffffffffffffffffffffffffffffffffffffff1614610527576040517f08c379a000000000000000000000000000000000000000000000000000000000815260040161051e906112e0565b60405180910390fd5b610531600061087a565b565b6000600660003373ffffffffffffffffffffffffffffffffffffffff1673ffffffffffffffffffffffffffffffffffffffff168152602001908152602001600020541461057f57600080fd5b600061058a8261093e565b9050606481610599919061132f565b816105a4919061138f565b90506105b08282610983565b5050565b60008060009054906101000a900473ffffffffffffffffffffffffffffffffffffffff16905090565b6105e5610872565b73ffffffffffffffffffffffffffffffffffffffff166106036105b4565b73ffffffffffffffffffffffffffffffffffffffff1614610659576040517f08c379a0000000000000000000000000000000000000000000000000000000008152600401610650906112e0565b60405180910390fd5b600073ffffffffffffffffffffffffffffffffffffffff168173ffffffffffffffffffffffffffffffffffffffff1614156106c9576040517f08c379a00000000000000000000000000000000000000000000000000000000081526004016106c090611435565b60405180910390fd5b6106d28161087a565b50565b826005600082815260200190815260200160002060009054906101000a900473ffffffffffffffffffffffffffffffffffffffff1673ffffffffffffffffffffffffffffffffffffffff163373ffffffffffffffffffffffffffffffffffffffff161461074157600080fd5b60006004858154811061075757610756611455565b5b9060005260206000209060030201905061077081610bb9565b61077957600080fd5b60025484610787919061132f565b93506000600285836001015461079d9190611484565b6107a791906114da565b90506040516020016107b890611562565b60405160208183030381529060405280519060200120846040516020016107df91906115a8565b60405160208183030381529060405280519060200120141561082257606360648261080a919061132f565b82610815919061138f565b61081f9190611484565b90505b6108616040518060400160405280600681526020017f4e6f4e616d65000000000000000000000000000000000000000000000000000081525082610983565b61086a82610be0565b505050505050565b600033905090565b60008060009054906101000a900473ffffffffffffffffffffffffffffffffffffffff169050816000806101000a81548173ffffffffffffffffffffffffffffffffffffffff021916908373ffffffffffffffffffffffffffffffffffffffff1602179055508173ffffffffffffffffffffffffffffffffffffffff168173ffffffffffffffffffffffffffffffffffffffff167f8be0079c531659141344cd1fd0a4f28419497f9722a3daafe3b4186f6b6457e060405160405180910390a35050565b6000808260405160200161095291906115a8565b6040516020818303038152906040528051906020012060001c90506002548161097b919061132f565b915050919050565b60046040518060c00160405280848152602001838152602001600163ffffffff168152602001600354426109b79190611484565b63ffffffff168152602001600061ffff168152602001600061ffff1681525090806001815401808255809150506001900390600052602060002090600302016000909190919091506000820151816000019080519060200190610a1b929190610c13565b506020820151816001015560408201518160020160006101000a81548163ffffffff021916908363ffffffff16021790555060608201518160020160046101000a81548163ffffffff021916908363ffffffff16021790555060808201518160020160086101000a81548161ffff021916908361ffff16021790555060a082015181600201600a6101000a81548161ffff021916908361ffff160217905550505060006001600480549050610ad0919061138f565b9050336005600083815260200190815260200160002060006101000a81548173ffffffffffffffffffffffffffffffffffffffff021916908373ffffffffffffffffffffffffffffffffffffffff160217905550600660003373ffffffffffffffffffffffffffffffffffffffff1673ffffffffffffffffffffffffffffffffffffffff1681526020019081526020016000206000815480929190610b74906115bf565b91905055507f88f026aacbbecc90c18411df4b1185fd8d9be2470f1962f192bf84a27d0704b7818484604051610bac93929190611608565b60405180910390a1505050565b6000428260020160049054906101000a900463ffffffff1663ffffffff1611159050919050565b60035442610bee9190611484565b8160020160046101000a81548163ffffffff021916908363ffffffff16021790555050565b828054610c1f90611262565b90600052602060002090601f016020900481019282610c415760008555610c88565b82601f10610c5a57805160ff1916838001178555610c88565b82800160010185558215610c88579182015b82811115610c87578251825591602001919060010190610c6c565b5b509050610c959190610c99565b5090565b5b80821115610cb2576000816000905550600101610c9a565b5090565b6000604051905090565b600080fd5b600080fd5b6000819050919050565b610cdd81610cca565b8114610ce857600080fd5b50565b600081359050610cfa81610cd4565b92915050565b60008060408385031215610d1757610d16610cc0565b5b6000610d2585828601610ceb565b9250506020610d3685828601610ceb565b9150509250929050565b600060208284031215610d5657610d55610cc0565b5b6000610d6484828501610ceb565b91505092915050565b600081519050919050565b600082825260208201905092915050565b60005b83811015610da7578082015181840152602081019050610d8c565b83811115610db6576000848401525b50505050565b6000601f19601f8301169050919050565b6000610dd882610d6d565b610de28185610d78565b9350610df2818560208601610d89565b610dfb81610dbc565b840191505092915050565b610e0f81610cca565b82525050565b600063ffffffff82169050919050565b610e2e81610e15565b82525050565b600061ffff82169050919050565b610e4b81610e34565b82525050565b600060c0820190508181036000830152610e6b8189610dcd565b9050610e7a6020830188610e06565b610e876040830187610e25565b610e946060830186610e25565b610ea16080830185610e42565b610eae60a0830184610e42565b979650505050505050565b600073ffffffffffffffffffffffffffffffffffffffff82169050919050565b6000610ee482610eb9565b9050919050565b610ef481610ed9565b82525050565b6000602082019050610f0f6000830184610eeb565b92915050565b610f1e81610ed9565b8114610f2957600080fd5b50565b600081359050610f3b81610f15565b92915050565b600060208284031215610f5757610f56610cc0565b5b6000610f6584828501610f2c565b91505092915050565b600080fd5b600080fd5b7f4e487b7100000000000000000000000000000000000000000000000000000000600052604160045260246000fd5b610fb082610dbc565b810181811067ffffffffffffffff82111715610fcf57610fce610f78565b5b80604052505050565b6000610fe2610cb6565b9050610fee8282610fa7565b919050565b600067ffffffffffffffff82111561100e5761100d610f78565b5b61101782610dbc565b9050602081019050919050565b82818337600083830152505050565b600061104661104184610ff3565b610fd8565b90508281526020810184848401111561106257611061610f73565b5b61106d848285611024565b509392505050565b600082601f83011261108a57611089610f6e565b5b813561109a848260208601611033565b91505092915050565b6000602082840312156110b9576110b8610cc0565b5b600082013567ffffffffffffffff8111156110d7576110d6610cc5565b5b6110e384828501611075565b91505092915050565b60006020820190506111016000830184610e06565b92915050565b60008115159050919050565b61111c81611107565b811461112757600080fd5b50565b60008151905061113981611113565b92915050565b60008151905061114e81610cd4565b92915050565b6000806000806000806000806000806101408b8d03121561117857611177610cc0565b5b60006111868d828e0161112a565b9a505060206111978d828e0161112a565b99505060406111a88d828e0161113f565b98505060606111b98d828e0161113f565b97505060806111ca8d828e0161113f565b96505060a06111db8d828e0161113f565b95505060c06111ec8d828e0161113f565b94505060e06111fd8d828e0161113f565b93505061010061120f8d828e0161113f565b9250506101206112218d828e0161113f565b9150509295989b9194979a5092959850565b7f4e487b7100000000000000000000000000000000000000000000000000000000600052602260045260246000fd5b6000600282049050600182168061127a57607f821691505b6020821081141561128e5761128d611233565b5b50919050565b7f4f776e61626c653a2063616c6c6572206973206e6f7420746865206f776e6572600082015250565b60006112ca602083610d78565b91506112d582611294565b602082019050919050565b600060208201905081810360008301526112f9816112bd565b9050919050565b7f4e487b7100000000000000000000000000000000000000000000000000000000600052601260045260246000fd5b600061133a82610cca565b915061134583610cca565b92508261135557611354611300565b5b828206905092915050565b7f4e487b7100000000000000000000000000000000000000000000000000000000600052601160045260246000fd5b600061139a82610cca565b91506113a583610cca565b9250828210156113b8576113b7611360565b5b828203905092915050565b7f4f776e61626c653a206e6577206f776e657220697320746865207a65726f206160008201527f6464726573730000000000000000000000000000000000000000000000000000602082015250565b600061141f602683610d78565b915061142a826113c3565b604082019050919050565b6000602082019050818103600083015261144e81611412565b9050919050565b7f4e487b7100000000000000000000000000000000000000000000000000000000600052603260045260246000fd5b600061148f82610cca565b915061149a83610cca565b9250827fffffffffffffffffffffffffffffffffffffffffffffffffffffffffffffffff038211156114cf576114ce611360565b5b828201905092915050565b60006114e582610cca565b91506114f083610cca565b925082611500576114ff611300565b5b828204905092915050565b600081905092915050565b7f6b69747479000000000000000000000000000000000000000000000000000000600082015250565b600061154c60058361150b565b915061155782611516565b600582019050919050565b600061156d8261153f565b9150819050919050565b600061158282610d6d565b61158c818561150b565b935061159c818560208601610d89565b80840191505092915050565b60006115b48284611577565b915081905092915050565b60006115ca82610cca565b91507fffffffffffffffffffffffffffffffffffffffffffffffffffffffffffffffff8214156115fd576115fc611360565b5b600182019050919050565b600060608201905061161d6000830186610e06565b818103602083015261162f8185610dcd565b905061163e6040830184610e06565b94935050505056fea26469706673582212207a218d77f79bdd84f363ba30278a60aa93e80a67513fd14420514a5d3e56f51464736f6c634300080c0033",
  "immutableReferences": {},
  "source": "// SPDX-License-Identifier: MIT\n\npragma solidity >=0.8.0 <0.9.0;\n\nimport \"./zombiefactory.sol\";\n\ninterface KittyInterface {\n  function getKitty(uint256 _id) external view returns (\n    bool isGestating,\n    bool isReady,\n    uint256 cooldownIndex,\n    uint256 nextActionAt,\n    uint256 siringWithId,\n    uint256 birthTime,\n    uint256 matronId,\n    uint256 sireId,\n    uint256 generation,\n    uint256 genes\n  );\n}\n\ncontract ZombieFeeding is ZombieFactory {\n\n  KittyInterface kittyContract;\n\n  modifier onlyOwnerOf(uint _zombieId) {\n    require(msg.sender == zombieToOwner[_zombieId]);\n    _;\n  }\n\n  function setKittyContractAddress(address _address) external onlyOwner {\n    kittyContract = KittyInterface(_address);\n  }\n\n  function _triggerCooldown(Zombie storage _zombie) internal {\n    _zombie.readyTime = uint32(block.timestamp + cooldownTime);\n  }\n\n  function _isReady(Zombie storage _zombie) internal view returns (bool) {\n      return (_zombie.readyTime <= block.timestamp);\n  }\n\n  function feedAndMultiply(uint _zombieId, uint _targetDna, string memory _species) internal onlyOwnerOf(_zombieId) {\n    Zombie storage myZombie = zombies[_zombieId];\n    require(_isReady(myZombie));\n    _targetDna = _targetDna % dnaModulus;\n    uint newDna = (myZombie.dna + _targetDna) / 2;\n    if (keccak256(abi.encodePacked(_species)) == keccak256(abi.encodePacked(\"kitty\"))) {\n      newDna = newDna - newDna % 100 + 99;\n    }\n    _createZombie(\"NoName\", newDna);\n    _triggerCooldown(myZombie);\n  }\n\n  function feedOnKitty(uint _zombieId, uint _kittyId) public {\n    uint kittyDna;\n    (,,,,,,,,,kittyDna) = kittyContract.getKitty(_kittyId);\n    feedAndMultiply(_zombieId, kittyDna, \"kitty\");\n  }\n}\n",
  "sourcePath": "/Users/lidoking/Desktop/Coding/Blockchain/CryptoZombiesEatLido/contracts/main/zombiefeeding.sol",
  "compiler": {
    "name": "solc",
    "version": "0.8.12+commit.f00d7308.Emscripten.clang"
  },
  "schemaVersion": "3.4.5",
  "updatedAt": "2022-02-18T15:16:08.905Z",
  "devdoc": {
    "kind": "dev",
    "methods": {
      "owner()": {
        "details": "Returns the address of the current owner."
      },
      "renounceOwnership()": {
        "details": "Leaves the contract without owner. It will not be possible to call `onlyOwner` functions anymore. Can only be called by the current owner. NOTE: Renouncing ownership will leave the contract without an owner, thereby removing any functionality that is only available to the owner."
      },
      "transferOwnership(address)": {
        "details": "Transfers ownership of the contract to a new account (`newOwner`). Can only be called by the current owner."
      }
    },
    "version": 1
  },
  "userdoc": {
    "kind": "user",
    "methods": {},
    "version": 1
  }
}