{
  "contractName": "ZombieHelper",
  "abi": [
    {
      "anonymous": false,
      "inputs": [
        {
          "indexed": false,
          "internalType": "uint256",
          "name": "zombieId",
          "type": "uint256"
        },
        {
          "indexed": false,
          "internalType": "string",
          "name": "name",
          "type": "string"
        },
        {
          "indexed": false,
          "internalType": "uint256",
          "name": "dna",
          "type": "uint256"
        }
      ],
      "name": "NewZombie",
      "type": "event"
    },
    {
      "anonymous": false,
      "inputs": [
        {
          "indexed": true,
          "internalType": "address",
          "name": "previousOwner",
          "type": "address"
        },
        {
          "indexed": true,
          "internalType": "address",
          "name": "newOwner",
          "type": "address"
        }
      ],
      "name": "OwnershipTransferred",
      "type": "event"
    },
    {
      "inputs": [
        {
          "internalType": "string",
          "name": "_name",
          "type": "string"
        }
      ],
      "name": "createRandomZombie",
      "outputs": [],
      "stateMutability": "nonpayable",
      "type": "function"
    },
    {
      "inputs": [
        {
          "internalType": "uint256",
          "name": "_zombieId",
          "type": "uint256"
        },
        {
          "internalType": "uint256",
          "name": "_kittyId",
          "type": "uint256"
        }
      ],
      "name": "feedOnKitty",
      "outputs": [],
      "stateMutability": "nonpayable",
      "type": "function"
    },
    {
      "inputs": [],
      "name": "owner",
      "outputs": [
        {
          "internalType": "address",
          "name": "",
          "type": "address"
        }
      ],
      "stateMutability": "view",
      "type": "function"
    },
    {
      "inputs": [],
      "name": "renounceOwnership",
      "outputs": [],
      "stateMutability": "nonpayable",
      "type": "function"
    },
    {
      "inputs": [
        {
          "internalType": "address",
          "name": "_address",
          "type": "address"
        }
      ],
      "name": "setKittyContractAddress",
      "outputs": [],
      "stateMutability": "nonpayable",
      "type": "function"
    },
    {
      "inputs": [
        {
          "internalType": "address",
          "name": "newOwner",
          "type": "address"
        }
      ],
      "name": "transferOwnership",
      "outputs": [],
      "stateMutability": "nonpayable",
      "type": "function"
    },
    {
      "inputs": [
        {
          "internalType": "uint256",
          "name": "",
          "type": "uint256"
        }
      ],
      "name": "zombieToOwner",
      "outputs": [
        {
          "internalType": "address",
          "name": "",
          "type": "address"
        }
      ],
      "stateMutability": "view",
      "type": "function"
    },
    {
      "inputs": [
        {
          "internalType": "uint256",
          "name": "",
          "type": "uint256"
        }
      ],
      "name": "zombies",
      "outputs": [
        {
          "internalType": "string",
          "name": "name",
          "type": "string"
        },
        {
          "internalType": "uint256",
          "name": "dna",
          "type": "uint256"
        },
        {
          "internalType": "uint32",
          "name": "level",
          "type": "uint32"
        },
        {
          "internalType": "uint32",
          "name": "readyTime",
          "type": "uint32"
        },
        {
          "internalType": "uint16",
          "name": "winCount",
          "type": "uint16"
        },
        {
          "internalType": "uint16",
          "name": "lossCount",
          "type": "uint16"
        }
      ],
      "stateMutability": "view",
      "type": "function"
    },
    {
      "inputs": [],
      "name": "withdraw",
      "outputs": [],
      "stateMutability": "payable",
      "type": "function"
    },
    {
      "inputs": [
        {
          "internalType": "uint256",
          "name": "_fee",
          "type": "uint256"
        }
      ],
      "name": "setLevelUpFee",
      "outputs": [],
      "stateMutability": "nonpayable",
      "type": "function"
    },
    {
      "inputs": [
        {
          "internalType": "uint256",
          "name": "_zombieId",
          "type": "uint256"
        }
      ],
      "name": "levelUp",
      "outputs": [],
      "stateMutability": "payable",
      "type": "function"
    },
    {
      "inputs": [
        {
          "internalType": "uint256",
          "name": "_zombieId",
          "type": "uint256"
        },
        {
          "internalType": "string",
          "name": "_newName",
          "type": "string"
        }
      ],
      "name": "changeName",
      "outputs": [],
      "stateMutability": "nonpayable",
      "type": "function"
    },
    {
      "inputs": [
        {
          "internalType": "uint256",
          "name": "_zombieId",
          "type": "uint256"
        },
        {
          "internalType": "uint256",
          "name": "_newDna",
          "type": "uint256"
        }
      ],
      "name": "changeDna",
      "outputs": [],
      "stateMutability": "nonpayable",
      "type": "function"
    },
    {
      "inputs": [
        {
          "internalType": "address",
          "name": "_owner",
          "type": "address"
        }
      ],
      "name": "getZombiesByOwner",
      "outputs": [
        {
          "internalType": "uint256[]",
          "name": "",
          "type": "uint256[]"
        }
      ],
      "stateMutability": "view",
      "type": "function"
    }
  ],
  "bytecode": "0x60806040526010600155600154600a6200001a9190620002bc565b6002556201518060035566038d7ea4c680006008553480156200003c57600080fd5b506200005d620000516200006360201b60201c565b6200006b60201b60201c565b6200030d565b600033905090565b60008060009054906101000a900473ffffffffffffffffffffffffffffffffffffffff169050816000806101000a81548173ffffffffffffffffffffffffffffffffffffffff021916908373ffffffffffffffffffffffffffffffffffffffff1602179055508173ffffffffffffffffffffffffffffffffffffffff168173ffffffffffffffffffffffffffffffffffffffff167f8be0079c531659141344cd1fd0a4f28419497f9722a3daafe3b4186f6b6457e060405160405180910390a35050565b7f4e487b7100000000000000000000000000000000000000000000000000000000600052601160045260246000fd5b60008160011c9050919050565b6000808291508390505b6001851115620001bd578086048111156200019557620001946200012f565b5b6001851615620001a55780820291505b8081029050620001b5856200015e565b945062000175565b94509492505050565b600082620001d85760019050620002ab565b81620001e85760009050620002ab565b81600181146200020157600281146200020c5762000242565b6001915050620002ab565b60ff8411156200022157620002206200012f565b5b8360020a9150848211156200023b576200023a6200012f565b5b50620002ab565b5060208310610133831016604e8410600b84101617156200027c5782820a9050838111156200027657620002756200012f565b5b620002ab565b6200028b84848460016200016b565b92509050818404811115620002a557620002a46200012f565b5b81810290505b9392505050565b6000819050919050565b6000620002c982620002b2565b9150620002d683620002b2565b9250620003057fffffffffffffffffffffffffffffffffffffffffffffffffffffffffffffffff8484620001c6565b905092915050565b611f66806200031d6000396000f3fe6080604052600436106100dd5760003560e01c80635faf28801161007f5780638da5cb5b116100595780638da5cb5b1461027f578063c39cbef1146102aa578063ccf670f8146102d3578063f2fde38b146102fc576100dd565b80635faf288014610216578063715018a61461023f5780637bff0a0114610256576100dd565b80633ccfd60b116100bb5780633ccfd60b146101695780634412e10414610173578063528b7b8f146101b05780635f4623f1146101ed576100dd565b80630ce90ec2146100e257806317a7f4cc146100fe5780632052465e14610127575b600080fd5b6100fc60048036038101906100f7919061141d565b610325565b005b34801561010a57600080fd5b506101256004803603810190610120919061144a565b61039a565b005b34801561013357600080fd5b5061014e6004803603810190610149919061141d565b6104b8565b6040516101609695949392919061156e565b60405180910390f35b6101716105c8565b005b34801561017f57600080fd5b5061019a60048036038101906101959190611634565b61069a565b6040516101a7919061171f565b60405180910390f35b3480156101bc57600080fd5b506101d760048036038101906101d2919061141d565b6107ed565b6040516101e49190611750565b60405180910390f35b3480156101f957600080fd5b50610214600480360381019061020f9190611634565b610820565b005b34801561022257600080fd5b5061023d6004803603810190610238919061144a565b6108e0565b005b34801561024b57600080fd5b506102546109c8565b005b34801561026257600080fd5b5061027d600480360381019061027891906118a0565b610a50565b005b34801561028b57600080fd5b50610294610ad1565b6040516102a19190611750565b60405180910390f35b3480156102b657600080fd5b506102d160048036038101906102cc9190611949565b610afa565b005b3480156102df57600080fd5b506102fa60048036038101906102f5919061141d565b610bee565b005b34801561030857600080fd5b50610323600480360381019061031e9190611634565b610c74565b005b600854341461033357600080fd5b60048181548110610347576103466119a9565b5b9060005260206000209060030201600201600081819054906101000a900463ffffffff168092919061037890611a07565b91906101000a81548163ffffffff021916908363ffffffff1602179055505050565b6000600760009054906101000a900473ffffffffffffffffffffffffffffffffffffffff1673ffffffffffffffffffffffffffffffffffffffff1663e98b7f4d836040518263ffffffff1660e01b81526004016103f79190611a34565b61014060405180830381865afa158015610415573d6000803e3d6000fd5b505050506040513d601f19601f820116820180604052508101906104399190611a9c565b909192939495969798509091929394959697509091929394959650909192939495509091929394509091929350909192509091509050809150506104b383826040518060400160405280600581526020017f6b69747479000000000000000000000000000000000000000000000000000000815250610d6c565b505050565b600481815481106104c857600080fd5b90600052602060002090600302016000915090508060000180546104eb90611baa565b80601f016020809104026020016040519081016040528092919081815260200182805461051790611baa565b80156105645780601f1061053957610100808354040283529160200191610564565b820191906000526020600020905b81548152906001019060200180831161054757829003601f168201915b5050505050908060010154908060020160009054906101000a900463ffffffff16908060020160049054906101000a900463ffffffff16908060020160089054906101000a900461ffff169080600201600a9054906101000a900461ffff16905086565b6105d0610f09565b73ffffffffffffffffffffffffffffffffffffffff166105ee610ad1565b73ffffffffffffffffffffffffffffffffffffffff1614610644576040517f08c379a000000000000000000000000000000000000000000000000000000000815260040161063b90611c28565b60405180910390fd5b600061064e610ad1565b90508073ffffffffffffffffffffffffffffffffffffffff166108fc479081150290604051600060405180830381858888f19350505050158015610696573d6000803e3d6000fd5b5050565b60606000600660008473ffffffffffffffffffffffffffffffffffffffff1673ffffffffffffffffffffffffffffffffffffffff1681526020019081526020016000205467ffffffffffffffff8111156106f7576106f6611775565b5b6040519080825280602002602001820160405280156107255781602001602082028036833780820191505090505b5090506000805b6004805490508110156107e2578473ffffffffffffffffffffffffffffffffffffffff166005600083815260200190815260200160002060009054906101000a900473ffffffffffffffffffffffffffffffffffffffff1673ffffffffffffffffffffffffffffffffffffffff1614156107cf57808383815181106107b4576107b36119a9565b5b60200260200101818152505081806107cb90611c48565b9250505b80806107da90611c48565b91505061072c565b508192505050919050565b60056020528060005260406000206000915054906101000a900473ffffffffffffffffffffffffffffffffffffffff1681565b610828610f09565b73ffffffffffffffffffffffffffffffffffffffff16610846610ad1565b73ffffffffffffffffffffffffffffffffffffffff161461089c576040517f08c379a000000000000000000000000000000000000000000000000000000000815260040161089390611c28565b60405180910390fd5b80600760006101000a81548173ffffffffffffffffffffffffffffffffffffffff021916908373ffffffffffffffffffffffffffffffffffffffff16021790555050565b60148281600482815481106108f8576108f76119a9565b5b906000526020600020906003020160020160009054906101000a900463ffffffff1663ffffffff16101561092b57600080fd5b836005600082815260200190815260200160002060009054906101000a900473ffffffffffffffffffffffffffffffffffffffff1673ffffffffffffffffffffffffffffffffffffffff163373ffffffffffffffffffffffffffffffffffffffff161461099757600080fd5b83600486815481106109ac576109ab6119a9565b5b9060005260206000209060030201600101819055505050505050565b6109d0610f09565b73ffffffffffffffffffffffffffffffffffffffff166109ee610ad1565b73ffffffffffffffffffffffffffffffffffffffff1614610a44576040517f08c379a0000000000000000000000000000000000000000000000000000000008152600401610a3b90611c28565b60405180910390fd5b610a4e6000610f11565b565b6000600660003373ffffffffffffffffffffffffffffffffffffffff1673ffffffffffffffffffffffffffffffffffffffff1681526020019081526020016000205414610a9c57600080fd5b6000610aa782610fd5565b9050606481610ab69190611cc0565b81610ac19190611cf1565b9050610acd828261101a565b5050565b60008060009054906101000a900473ffffffffffffffffffffffffffffffffffffffff16905090565b6002838160048281548110610b1257610b116119a9565b5b906000526020600020906003020160020160009054906101000a900463ffffffff1663ffffffff161015610b4557600080fd5b846005600082815260200190815260200160002060009054906101000a900473ffffffffffffffffffffffffffffffffffffffff1673ffffffffffffffffffffffffffffffffffffffff163373ffffffffffffffffffffffffffffffffffffffff1614610bb157600080fd5b848460048881548110610bc757610bc66119a9565b5b90600052602060002090600302016000019190610be59291906112aa565b50505050505050565b610bf6610f09565b73ffffffffffffffffffffffffffffffffffffffff16610c14610ad1565b73ffffffffffffffffffffffffffffffffffffffff1614610c6a576040517f08c379a0000000000000000000000000000000000000000000000000000000008152600401610c6190611c28565b60405180910390fd5b8060088190555050565b610c7c610f09565b73ffffffffffffffffffffffffffffffffffffffff16610c9a610ad1565b73ffffffffffffffffffffffffffffffffffffffff1614610cf0576040517f08c379a0000000000000000000000000000000000000000000000000000000008152600401610ce790611c28565b60405180910390fd5b600073ffffffffffffffffffffffffffffffffffffffff168173ffffffffffffffffffffffffffffffffffffffff161415610d60576040517f08c379a0000000000000000000000000000000000000000000000000000000008152600401610d5790611d97565b60405180910390fd5b610d6981610f11565b50565b826005600082815260200190815260200160002060009054906101000a900473ffffffffffffffffffffffffffffffffffffffff1673ffffffffffffffffffffffffffffffffffffffff163373ffffffffffffffffffffffffffffffffffffffff1614610dd857600080fd5b600060048581548110610dee57610ded6119a9565b5b90600052602060002090600302019050610e0781611250565b610e1057600080fd5b60025484610e1e9190611cc0565b935060006002858360010154610e349190611db7565b610e3e9190611e0d565b9050604051602001610e4f90611e95565b6040516020818303038152906040528051906020012084604051602001610e769190611edb565b604051602081830303815290604052805190602001201415610eb9576063606482610ea19190611cc0565b82610eac9190611cf1565b610eb69190611db7565b90505b610ef86040518060400160405280600681526020017f4e6f4e616d6500000000000000000000000000000000000000000000000000008152508261101a565b610f0182611277565b505050505050565b600033905090565b60008060009054906101000a900473ffffffffffffffffffffffffffffffffffffffff169050816000806101000a81548173ffffffffffffffffffffffffffffffffffffffff021916908373ffffffffffffffffffffffffffffffffffffffff1602179055508173ffffffffffffffffffffffffffffffffffffffff168173ffffffffffffffffffffffffffffffffffffffff167f8be0079c531659141344cd1fd0a4f28419497f9722a3daafe3b4186f6b6457e060405160405180910390a35050565b60008082604051602001610fe99190611edb565b6040516020818303038152906040528051906020012060001c9050600254816110129190611cc0565b915050919050565b60046040518060c00160405280848152602001838152602001600163ffffffff1681526020016003544261104e9190611db7565b63ffffffff168152602001600061ffff168152602001600061ffff16815250908060018154018082558091505060019003906000526020600020906003020160009091909190915060008201518160000190805190602001906110b2929190611330565b506020820151816001015560408201518160020160006101000a81548163ffffffff021916908363ffffffff16021790555060608201518160020160046101000a81548163ffffffff021916908363ffffffff16021790555060808201518160020160086101000a81548161ffff021916908361ffff16021790555060a082015181600201600a6101000a81548161ffff021916908361ffff1602179055505050600060016004805490506111679190611cf1565b9050336005600083815260200190815260200160002060006101000a81548173ffffffffffffffffffffffffffffffffffffffff021916908373ffffffffffffffffffffffffffffffffffffffff160217905550600660003373ffffffffffffffffffffffffffffffffffffffff1673ffffffffffffffffffffffffffffffffffffffff168152602001908152602001600020600081548092919061120b90611c48565b91905055507f88f026aacbbecc90c18411df4b1185fd8d9be2470f1962f192bf84a27d0704b781848460405161124393929190611ef2565b60405180910390a1505050565b6000428260020160049054906101000a900463ffffffff1663ffffffff1611159050919050565b600354426112859190611db7565b8160020160046101000a81548163ffffffff021916908363ffffffff16021790555050565b8280546112b690611baa565b90600052602060002090601f0160209004810192826112d8576000855561131f565b82601f106112f157803560ff191683800117855561131f565b8280016001018555821561131f579182015b8281111561131e578235825591602001919060010190611303565b5b50905061132c91906113b6565b5090565b82805461133c90611baa565b90600052602060002090601f01602090048101928261135e57600085556113a5565b82601f1061137757805160ff19168380011785556113a5565b828001600101855582156113a5579182015b828111156113a4578251825591602001919060010190611389565b5b5090506113b291906113b6565b5090565b5b808211156113cf5760008160009055506001016113b7565b5090565b6000604051905090565b600080fd5b600080fd5b6000819050919050565b6113fa816113e7565b811461140557600080fd5b50565b600081359050611417816113f1565b92915050565b600060208284031215611433576114326113dd565b5b600061144184828501611408565b91505092915050565b60008060408385031215611461576114606113dd565b5b600061146f85828601611408565b925050602061148085828601611408565b9150509250929050565b600081519050919050565b600082825260208201905092915050565b60005b838110156114c45780820151818401526020810190506114a9565b838111156114d3576000848401525b50505050565b6000601f19601f8301169050919050565b60006114f58261148a565b6114ff8185611495565b935061150f8185602086016114a6565b611518816114d9565b840191505092915050565b61152c816113e7565b82525050565b600063ffffffff82169050919050565b61154b81611532565b82525050565b600061ffff82169050919050565b61156881611551565b82525050565b600060c082019050818103600083015261158881896114ea565b90506115976020830188611523565b6115a46040830187611542565b6115b16060830186611542565b6115be608083018561155f565b6115cb60a083018461155f565b979650505050505050565b600073ffffffffffffffffffffffffffffffffffffffff82169050919050565b6000611601826115d6565b9050919050565b611611816115f6565b811461161c57600080fd5b50565b60008135905061162e81611608565b92915050565b60006020828403121561164a576116496113dd565b5b60006116588482850161161f565b91505092915050565b600081519050919050565b600082825260208201905092915050565b6000819050602082019050919050565b611696816113e7565b82525050565b60006116a8838361168d565b60208301905092915050565b6000602082019050919050565b60006116cc82611661565b6116d6818561166c565b93506116e18361167d565b8060005b838110156117125781516116f9888261169c565b9750611704836116b4565b9250506001810190506116e5565b5085935050505092915050565b6000602082019050818103600083015261173981846116c1565b905092915050565b61174a816115f6565b82525050565b60006020820190506117656000830184611741565b92915050565b600080fd5b600080fd5b7f4e487b7100000000000000000000000000000000000000000000000000000000600052604160045260246000fd5b6117ad826114d9565b810181811067ffffffffffffffff821117156117cc576117cb611775565b5b80604052505050565b60006117df6113d3565b90506117eb82826117a4565b919050565b600067ffffffffffffffff82111561180b5761180a611775565b5b611814826114d9565b9050602081019050919050565b82818337600083830152505050565b600061184361183e846117f0565b6117d5565b90508281526020810184848401111561185f5761185e611770565b5b61186a848285611821565b509392505050565b600082601f8301126118875761188661176b565b5b8135611897848260208601611830565b91505092915050565b6000602082840312156118b6576118b56113dd565b5b600082013567ffffffffffffffff8111156118d4576118d36113e2565b5b6118e084828501611872565b91505092915050565b600080fd5b600080fd5b60008083601f8401126119095761190861176b565b5b8235905067ffffffffffffffff811115611926576119256118e9565b5b602083019150836001820283011115611942576119416118ee565b5b9250929050565b600080600060408486031215611962576119616113dd565b5b600061197086828701611408565b935050602084013567ffffffffffffffff811115611991576119906113e2565b5b61199d868287016118f3565b92509250509250925092565b7f4e487b7100000000000000000000000000000000000000000000000000000000600052603260045260246000fd5b7f4e487b7100000000000000000000000000000000000000000000000000000000600052601160045260246000fd5b6000611a1282611532565b915063ffffffff821415611a2957611a286119d8565b5b600182019050919050565b6000602082019050611a496000830184611523565b92915050565b60008115159050919050565b611a6481611a4f565b8114611a6f57600080fd5b50565b600081519050611a8181611a5b565b92915050565b600081519050611a96816113f1565b92915050565b6000806000806000806000806000806101408b8d031215611ac057611abf6113dd565b5b6000611ace8d828e01611a72565b9a50506020611adf8d828e01611a72565b9950506040611af08d828e01611a87565b9850506060611b018d828e01611a87565b9750506080611b128d828e01611a87565b96505060a0611b238d828e01611a87565b95505060c0611b348d828e01611a87565b94505060e0611b458d828e01611a87565b935050610100611b578d828e01611a87565b925050610120611b698d828e01611a87565b9150509295989b9194979a5092959850565b7f4e487b7100000000000000000000000000000000000000000000000000000000600052602260045260246000fd5b60006002820490506001821680611bc257607f821691505b60208210811415611bd657611bd5611b7b565b5b50919050565b7f4f776e61626c653a2063616c6c6572206973206e6f7420746865206f776e6572600082015250565b6000611c12602083611495565b9150611c1d82611bdc565b602082019050919050565b60006020820190508181036000830152611c4181611c05565b9050919050565b6000611c53826113e7565b91507fffffffffffffffffffffffffffffffffffffffffffffffffffffffffffffffff821415611c8657611c856119d8565b5b600182019050919050565b7f4e487b7100000000000000000000000000000000000000000000000000000000600052601260045260246000fd5b6000611ccb826113e7565b9150611cd6836113e7565b925082611ce657611ce5611c91565b5b828206905092915050565b6000611cfc826113e7565b9150611d07836113e7565b925082821015611d1a57611d196119d8565b5b828203905092915050565b7f4f776e61626c653a206e6577206f776e657220697320746865207a65726f206160008201527f6464726573730000000000000000000000000000000000000000000000000000602082015250565b6000611d81602683611495565b9150611d8c82611d25565b604082019050919050565b60006020820190508181036000830152611db081611d74565b9050919050565b6000611dc2826113e7565b9150611dcd836113e7565b9250827fffffffffffffffffffffffffffffffffffffffffffffffffffffffffffffffff03821115611e0257611e016119d8565b5b828201905092915050565b6000611e18826113e7565b9150611e23836113e7565b925082611e3357611e32611c91565b5b828204905092915050565b600081905092915050565b7f6b69747479000000000000000000000000000000000000000000000000000000600082015250565b6000611e7f600583611e3e565b9150611e8a82611e49565b600582019050919050565b6000611ea082611e72565b9150819050919050565b6000611eb58261148a565b611ebf8185611e3e565b9350611ecf8185602086016114a6565b80840191505092915050565b6000611ee78284611eaa565b915081905092915050565b6000606082019050611f076000830186611523565b8181036020830152611f1981856114ea565b9050611f286040830184611523565b94935050505056fea2646970667358221220260a88878cc8e7cb9581ed4814bea0fcbb0fb34c57e78376602027e44b9270a264736f6c634300080c0033",
  "immutableReferences": {},
  "source": "// SPDX-License-Identifier: MIT\n\npragma solidity >=0.8.0 <0.9.0;\n\nimport \"./zombiefeeding.sol\";\n\ncontract ZombieHelper is ZombieFeeding {\n\n  uint levelUpFee = 0.001 ether;\n\n  modifier aboveLevel(uint _level, uint _zombieId) {\n    require(zombies[_zombieId].level >= _level);\n    _;\n  }\n\n  function withdraw() external payable onlyOwner {\n    address payable _owner = payable(owner());\n    _owner.transfer(address(this).balance);\n  }\n\n  function setLevelUpFee(uint _fee) external onlyOwner {\n    levelUpFee = _fee;\n  }\n\n  function levelUp(uint _zombieId) external payable {\n    require(msg.value == levelUpFee);\n    zombies[_zombieId].level++;\n  }\n\n  function changeName(uint _zombieId, string calldata _newName) external aboveLevel(2, _zombieId) onlyOwnerOf(_zombieId) {\n    zombies[_zombieId].name = _newName;\n  }\n\n  function changeDna(uint _zombieId, uint _newDna) external aboveLevel(20, _zombieId) onlyOwnerOf(_zombieId) {\n    zombies[_zombieId].dna = _newDna;\n  }\n\n  function getZombiesByOwner(address _owner) external view returns(uint[] memory) {\n    uint[] memory result = new uint[](ownerZombieCount[_owner]);\n    uint counter = 0;\n    for (uint i = 0; i < zombies.length; i++) {\n      if (zombieToOwner[i] == _owner) {\n        result[counter] = i;\n        counter++;\n      }\n    }\n    return result;\n  }\n\n}\n",
  "sourcePath": "/Users/lidoking/Desktop/Coding/Blockchain/CryptoZombiesEatLido/contracts/main/zombiehelper.sol",
  "compiler": {
    "name": "solc",
    "version": "0.8.12+commit.f00d7308.Emscripten.clang"
  },
  "schemaVersion": "3.4.5",
  "updatedAt": "2022-02-18T15:16:08.914Z",
  "devdoc": {
    "kind": "dev",
    "methods": {
      "owner()": {
        "details": "Returns the address of the current owner."
      },
      "renounceOwnership()": {
        "details": "Leaves the contract without owner. It will not be possible to call `onlyOwner` functions anymore. Can only be called by the current owner. NOTE: Renouncing ownership will leave the contract without an owner, thereby removing any functionality that is only available to the owner."
      },
      "transferOwnership(address)": {
        "details": "Transfers ownership of the contract to a new account (`newOwner`). Can only be called by the current owner."
      }
    },
    "version": 1
  },
  "userdoc": {
    "kind": "user",
    "methods": {},
    "version": 1
  }
}