{
  "contractName": "CryptoZombies",
  "abi": [
    {
      "anonymous": false,
      "inputs": [
        {
          "indexed": true,
          "internalType": "address",
          "name": "_owner",
          "type": "address"
        },
        {
          "indexed": true,
          "internalType": "address",
          "name": "_approved",
          "type": "address"
        },
        {
          "indexed": true,
          "internalType": "uint256",
          "name": "_tokenId",
          "type": "uint256"
        }
      ],
      "name": "Approval",
      "type": "event"
    },
    {
      "anonymous": false,
      "inputs": [
        {
          "indexed": false,
          "internalType": "uint256",
          "name": "zombieId",
          "type": "uint256"
        },
        {
          "indexed": false,
          "internalType": "string",
          "name": "name",
          "type": "string"
        },
        {
          "indexed": false,
          "internalType": "uint256",
          "name": "dna",
          "type": "uint256"
        }
      ],
      "name": "NewZombie",
      "type": "event"
    },
    {
      "anonymous": false,
      "inputs": [
        {
          "indexed": true,
          "internalType": "address",
          "name": "previousOwner",
          "type": "address"
        },
        {
          "indexed": true,
          "internalType": "address",
          "name": "newOwner",
          "type": "address"
        }
      ],
      "name": "OwnershipTransferred",
      "type": "event"
    },
    {
      "anonymous": false,
      "inputs": [
        {
          "indexed": true,
          "internalType": "address",
          "name": "_from",
          "type": "address"
        },
        {
          "indexed": true,
          "internalType": "address",
          "name": "_to",
          "type": "address"
        },
        {
          "indexed": true,
          "internalType": "uint256",
          "name": "_tokenId",
          "type": "uint256"
        }
      ],
      "name": "Transfer",
      "type": "event"
    },
    {
      "inputs": [
        {
          "internalType": "address",
          "name": "_approved",
          "type": "address"
        },
        {
          "internalType": "uint256",
          "name": "_tokenId",
          "type": "uint256"
        }
      ],
      "name": "approve",
      "outputs": [],
      "stateMutability": "payable",
      "type": "function"
    },
    {
      "inputs": [
        {
          "internalType": "uint256",
          "name": "_zombieId",
          "type": "uint256"
        },
        {
          "internalType": "uint256",
          "name": "_targetId",
          "type": "uint256"
        }
      ],
      "name": "attack",
      "outputs": [],
      "stateMutability": "nonpayable",
      "type": "function"
    },
    {
      "inputs": [
        {
          "internalType": "address",
          "name": "_owner",
          "type": "address"
        }
      ],
      "name": "balanceOf",
      "outputs": [
        {
          "internalType": "uint256",
          "name": "",
          "type": "uint256"
        }
      ],
      "stateMutability": "view",
      "type": "function"
    },
    {
      "inputs": [
        {
          "internalType": "uint256",
          "name": "_zombieId",
          "type": "uint256"
        },
        {
          "internalType": "uint256",
          "name": "_newDna",
          "type": "uint256"
        }
      ],
      "name": "changeDna",
      "outputs": [],
      "stateMutability": "nonpayable",
      "type": "function"
    },
    {
      "inputs": [
        {
          "internalType": "uint256",
          "name": "_zombieId",
          "type": "uint256"
        },
        {
          "internalType": "string",
          "name": "_newName",
          "type": "string"
        }
      ],
      "name": "changeName",
      "outputs": [],
      "stateMutability": "nonpayable",
      "type": "function"
    },
    {
      "inputs": [
        {
          "internalType": "string",
          "name": "_name",
          "type": "string"
        }
      ],
      "name": "createRandomZombie",
      "outputs": [],
      "stateMutability": "nonpayable",
      "type": "function"
    },
    {
      "inputs": [
        {
          "internalType": "uint256",
          "name": "_zombieId",
          "type": "uint256"
        },
        {
          "internalType": "uint256",
          "name": "_kittyId",
          "type": "uint256"
        }
      ],
      "name": "feedOnKitty",
      "outputs": [],
      "stateMutability": "nonpayable",
      "type": "function"
    },
    {
      "inputs": [
        {
          "internalType": "address",
          "name": "_owner",
          "type": "address"
        }
      ],
      "name": "getZombiesByOwner",
      "outputs": [
        {
          "internalType": "uint256[]",
          "name": "",
          "type": "uint256[]"
        }
      ],
      "stateMutability": "view",
      "type": "function"
    },
    {
      "inputs": [
        {
          "internalType": "uint256",
          "name": "_zombieId",
          "type": "uint256"
        }
      ],
      "name": "levelUp",
      "outputs": [],
      "stateMutability": "payable",
      "type": "function"
    },
    {
      "inputs": [],
      "name": "owner",
      "outputs": [
        {
          "internalType": "address",
          "name": "",
          "type": "address"
        }
      ],
      "stateMutability": "view",
      "type": "function"
    },
    {
      "inputs": [
        {
          "internalType": "uint256",
          "name": "_tokenId",
          "type": "uint256"
        }
      ],
      "name": "ownerOf",
      "outputs": [
        {
          "internalType": "address",
          "name": "",
          "type": "address"
        }
      ],
      "stateMutability": "view",
      "type": "function"
    },
    {
      "inputs": [],
      "name": "renounceOwnership",
      "outputs": [],
      "stateMutability": "nonpayable",
      "type": "function"
    },
    {
      "inputs": [
        {
          "internalType": "address",
          "name": "_address",
          "type": "address"
        }
      ],
      "name": "setKittyContractAddress",
      "outputs": [],
      "stateMutability": "nonpayable",
      "type": "function"
    },
    {
      "inputs": [
        {
          "internalType": "uint256",
          "name": "_fee",
          "type": "uint256"
        }
      ],
      "name": "setLevelUpFee",
      "outputs": [],
      "stateMutability": "nonpayable",
      "type": "function"
    },
    {
      "inputs": [
        {
          "internalType": "address",
          "name": "_from",
          "type": "address"
        },
        {
          "internalType": "address",
          "name": "_to",
          "type": "address"
        },
        {
          "internalType": "uint256",
          "name": "_tokenId",
          "type": "uint256"
        }
      ],
      "name": "transferFrom",
      "outputs": [],
      "stateMutability": "payable",
      "type": "function"
    },
    {
      "inputs": [
        {
          "internalType": "address",
          "name": "newOwner",
          "type": "address"
        }
      ],
      "name": "transferOwnership",
      "outputs": [],
      "stateMutability": "nonpayable",
      "type": "function"
    },
    {
      "inputs": [],
      "name": "withdraw",
      "outputs": [],
      "stateMutability": "payable",
      "type": "function"
    },
    {
      "inputs": [
        {
          "internalType": "uint256",
          "name": "",
          "type": "uint256"
        }
      ],
      "name": "zombieToOwner",
      "outputs": [
        {
          "internalType": "address",
          "name": "",
          "type": "address"
        }
      ],
      "stateMutability": "view",
      "type": "function"
    },
    {
      "inputs": [
        {
          "internalType": "uint256",
          "name": "",
          "type": "uint256"
        }
      ],
      "name": "zombies",
      "outputs": [
        {
          "internalType": "string",
          "name": "name",
          "type": "string"
        },
        {
          "internalType": "uint256",
          "name": "dna",
          "type": "uint256"
        },
        {
          "internalType": "uint32",
          "name": "level",
          "type": "uint32"
        },
        {
          "internalType": "uint32",
          "name": "readyTime",
          "type": "uint32"
        },
        {
          "internalType": "uint16",
          "name": "winCount",
          "type": "uint16"
        },
        {
          "internalType": "uint16",
          "name": "lossCount",
          "type": "uint16"
        }
      ],
      "stateMutability": "view",
      "type": "function"
    }
  ],
  "bytecode": "0x60806040526010600155600154600a6200001a9190620002c6565b6002556201518060035566038d7ea4c6800060085560006009556046600a553480156200004657600080fd5b50620000676200005b6200006d60201b60201c565b6200007560201b60201c565b62000317565b600033905090565b60008060009054906101000a900473ffffffffffffffffffffffffffffffffffffffff169050816000806101000a81548173ffffffffffffffffffffffffffffffffffffffff021916908373ffffffffffffffffffffffffffffffffffffffff1602179055508173ffffffffffffffffffffffffffffffffffffffff168173ffffffffffffffffffffffffffffffffffffffff167f8be0079c531659141344cd1fd0a4f28419497f9722a3daafe3b4186f6b6457e060405160405180910390a35050565b7f4e487b7100000000000000000000000000000000000000000000000000000000600052601160045260246000fd5b60008160011c9050919050565b6000808291508390505b6001851115620001c7578086048111156200019f576200019e62000139565b5b6001851615620001af5780820291505b8081029050620001bf8562000168565b94506200017f565b94509492505050565b600082620001e25760019050620002b5565b81620001f25760009050620002b5565b81600181146200020b576002811462000216576200024c565b6001915050620002b5565b60ff8411156200022b576200022a62000139565b5b8360020a91508482111562000245576200024462000139565b5b50620002b5565b5060208310610133831016604e8410600b8410161715620002865782820a90508381111562000280576200027f62000139565b5b620002b5565b62000295848484600162000175565b92509050818404811115620002af57620002ae62000139565b5b81810290505b9392505050565b6000819050919050565b6000620002d382620002bc565b9150620002e083620002bc565b92506200030f7fffffffffffffffffffffffffffffffffffffffffffffffffffffffffffffffff8484620001d0565b905092915050565b6128a780620003276000396000f3fe6080604052600436106101145760003560e01c80635faf2880116100a05780638da5cb5b116100645780638da5cb5b14610368578063c39cbef114610393578063ccf670f8146103bc578063e1fa7638146103e5578063f2fde38b1461040e57610114565b80635faf2880146102855780636352211e146102ae57806370a08231146102eb578063715018a6146103285780637bff0a011461033f57610114565b806323b872dd116100e757806323b872dd146101bc5780633ccfd60b146101d85780634412e104146101e2578063528b7b8f1461021f5780635f4623f11461025c57610114565b8063095ea7b3146101195780630ce90ec21461013557806317a7f4cc146101515780632052465e1461017a575b600080fd5b610133600480360381019061012e9190611c2e565b610437565b005b61014f600480360381019061014a9190611c6e565b610555565b005b34801561015d57600080fd5b5061017860048036038101906101739190611c9b565b6105ca565b005b34801561018657600080fd5b506101a1600480360381019061019c9190611c6e565b6106e8565b6040516101b396959493929190611dbf565b60405180910390f35b6101d660048036038101906101d19190611e27565b6107f8565b005b6101e06108dc565b005b3480156101ee57600080fd5b5061020960048036038101906102049190611e7a565b6109ae565b6040516102169190611f65565b60405180910390f35b34801561022b57600080fd5b5061024660048036038101906102419190611c6e565b610b01565b6040516102539190611f96565b60405180910390f35b34801561026857600080fd5b50610283600480360381019061027e9190611e7a565b610b34565b005b34801561029157600080fd5b506102ac60048036038101906102a79190611c9b565b610bf4565b005b3480156102ba57600080fd5b506102d560048036038101906102d09190611c6e565b610cdc565b6040516102e29190611f96565b60405180910390f35b3480156102f757600080fd5b50610312600480360381019061030d9190611e7a565b610d19565b60405161031f9190611fb1565b60405180910390f35b34801561033457600080fd5b5061033d610d62565b005b34801561034b57600080fd5b5061036660048036038101906103619190612101565b610dea565b005b34801561037457600080fd5b5061037d610e6b565b60405161038a9190611f96565b60405180910390f35b34801561039f57600080fd5b506103ba60048036038101906103b591906121aa565b610e94565b005b3480156103c857600080fd5b506103e360048036038101906103de9190611c6e565b610f88565b005b3480156103f157600080fd5b5061040c60048036038101906104079190611c9b565b61100e565b005b34801561041a57600080fd5b5061043560048036038101906104309190611e7a565b61126f565b005b806005600082815260200190815260200160002060009054906101000a900473ffffffffffffffffffffffffffffffffffffffff1673ffffffffffffffffffffffffffffffffffffffff163373ffffffffffffffffffffffffffffffffffffffff16146104a357600080fd5b82600b600084815260200190815260200160002060006101000a81548173ffffffffffffffffffffffffffffffffffffffff021916908373ffffffffffffffffffffffffffffffffffffffff160217905550818373ffffffffffffffffffffffffffffffffffffffff163373ffffffffffffffffffffffffffffffffffffffff167f8c5be1e5ebec7d5bd14f71427d1e84f3dd0314c0f7b2291e5b200ac8c7c3b92560405160405180910390a4505050565b600854341461056357600080fd5b600481815481106105775761057661220a565b5b9060005260206000209060030201600201600081819054906101000a900463ffffffff16809291906105a890612268565b91906101000a81548163ffffffff021916908363ffffffff1602179055505050565b6000600760009054906101000a900473ffffffffffffffffffffffffffffffffffffffff1673ffffffffffffffffffffffffffffffffffffffff1663e98b7f4d836040518263ffffffff1660e01b81526004016106279190611fb1565b61014060405180830381865afa158015610645573d6000803e3d6000fd5b505050506040513d601f19601f8201168201806040525081019061066991906122e2565b909192939495969798509091929394959697509091929394959650909192939495509091929394509091929350909192509091509050809150506106e383826040518060400160405280600581526020017f6b69747479000000000000000000000000000000000000000000000000000000815250611367565b505050565b600481815481106106f857600080fd5b906000526020600020906003020160009150905080600001805461071b906123f0565b80601f0160208091040260200160405190810160405280929190818152602001828054610747906123f0565b80156107945780601f1061076957610100808354040283529160200191610794565b820191906000526020600020905b81548152906001019060200180831161077757829003601f168201915b5050505050908060010154908060020160009054906101000a900463ffffffff16908060020160049054906101000a900463ffffffff16908060020160089054906101000a900461ffff169080600201600a9054906101000a900461ffff16905086565b3373ffffffffffffffffffffffffffffffffffffffff166005600083815260200190815260200160002060009054906101000a900473ffffffffffffffffffffffffffffffffffffffff1673ffffffffffffffffffffffffffffffffffffffff1614806108c357503373ffffffffffffffffffffffffffffffffffffffff16600b600083815260200190815260200160002060009054906101000a900473ffffffffffffffffffffffffffffffffffffffff1673ffffffffffffffffffffffffffffffffffffffff16145b6108cc57600080fd5b6108d7838383611504565b505050565b6108e4611660565b73ffffffffffffffffffffffffffffffffffffffff16610902610e6b565b73ffffffffffffffffffffffffffffffffffffffff1614610958576040517f08c379a000000000000000000000000000000000000000000000000000000000815260040161094f9061246e565b60405180910390fd5b6000610962610e6b565b90508073ffffffffffffffffffffffffffffffffffffffff166108fc479081150290604051600060405180830381858888f193505050501580156109aa573d6000803e3d6000fd5b5050565b60606000600660008473ffffffffffffffffffffffffffffffffffffffff1673ffffffffffffffffffffffffffffffffffffffff1681526020019081526020016000205467ffffffffffffffff811115610a0b57610a0a611fd6565b5b604051908082528060200260200182016040528015610a395781602001602082028036833780820191505090505b5090506000805b600480549050811015610af6578473ffffffffffffffffffffffffffffffffffffffff166005600083815260200190815260200160002060009054906101000a900473ffffffffffffffffffffffffffffffffffffffff1673ffffffffffffffffffffffffffffffffffffffff161415610ae35780838381518110610ac857610ac761220a565b5b6020026020010181815250508180610adf9061248e565b9250505b8080610aee9061248e565b915050610a40565b508192505050919050565b60056020528060005260406000206000915054906101000a900473ffffffffffffffffffffffffffffffffffffffff1681565b610b3c611660565b73ffffffffffffffffffffffffffffffffffffffff16610b5a610e6b565b73ffffffffffffffffffffffffffffffffffffffff1614610bb0576040517f08c379a0000000000000000000000000000000000000000000000000000000008152600401610ba79061246e565b60405180910390fd5b80600760006101000a81548173ffffffffffffffffffffffffffffffffffffffff021916908373ffffffffffffffffffffffffffffffffffffffff16021790555050565b6014828160048281548110610c0c57610c0b61220a565b5b906000526020600020906003020160020160009054906101000a900463ffffffff1663ffffffff161015610c3f57600080fd5b836005600082815260200190815260200160002060009054906101000a900473ffffffffffffffffffffffffffffffffffffffff1673ffffffffffffffffffffffffffffffffffffffff163373ffffffffffffffffffffffffffffffffffffffff1614610cab57600080fd5b8360048681548110610cc057610cbf61220a565b5b9060005260206000209060030201600101819055505050505050565b60006005600083815260200190815260200160002060009054906101000a900473ffffffffffffffffffffffffffffffffffffffff169050919050565b6000600660008373ffffffffffffffffffffffffffffffffffffffff1673ffffffffffffffffffffffffffffffffffffffff168152602001908152602001600020549050919050565b610d6a611660565b73ffffffffffffffffffffffffffffffffffffffff16610d88610e6b565b73ffffffffffffffffffffffffffffffffffffffff1614610dde576040517f08c379a0000000000000000000000000000000000000000000000000000000008152600401610dd59061246e565b60405180910390fd5b610de86000611668565b565b6000600660003373ffffffffffffffffffffffffffffffffffffffff1673ffffffffffffffffffffffffffffffffffffffff1681526020019081526020016000205414610e3657600080fd5b6000610e418261172c565b9050606481610e509190612506565b81610e5b9190612537565b9050610e678282611771565b5050565b60008060009054906101000a900473ffffffffffffffffffffffffffffffffffffffff16905090565b6002838160048281548110610eac57610eab61220a565b5b906000526020600020906003020160020160009054906101000a900463ffffffff1663ffffffff161015610edf57600080fd5b846005600082815260200190815260200160002060009054906101000a900473ffffffffffffffffffffffffffffffffffffffff1673ffffffffffffffffffffffffffffffffffffffff163373ffffffffffffffffffffffffffffffffffffffff1614610f4b57600080fd5b848460048881548110610f6157610f6061220a565b5b90600052602060002090600302016000019190610f7f929190611a5d565b50505050505050565b610f90611660565b73ffffffffffffffffffffffffffffffffffffffff16610fae610e6b565b73ffffffffffffffffffffffffffffffffffffffff1614611004576040517f08c379a0000000000000000000000000000000000000000000000000000000008152600401610ffb9061246e565b60405180910390fd5b8060088190555050565b816005600082815260200190815260200160002060009054906101000a900473ffffffffffffffffffffffffffffffffffffffff1673ffffffffffffffffffffffffffffffffffffffff163373ffffffffffffffffffffffffffffffffffffffff161461107a57600080fd5b6000600484815481106110905761108f61220a565b5b906000526020600020906003020190506000600484815481106110b6576110b561220a565b5b9060005260206000209060030201905060006110d260646119a7565b9050600a5481116111e35782600201600881819054906101000a900461ffff16809291906110ff9061256b565b91906101000a81548161ffff021916908361ffff1602179055505082600201600081819054906101000a900463ffffffff168092919061113e90612268565b91906101000a81548163ffffffff021916908363ffffffff1602179055505081600201600a81819054906101000a900461ffff168092919061117f9061256b565b91906101000a81548161ffff021916908361ffff160217905550506111de8683600101546040518060400160405280600681526020017f7a6f6d6269650000000000000000000000000000000000000000000000000000815250611367565b611267565b82600201600a81819054906101000a900461ffff16809291906112059061256b565b91906101000a81548161ffff021916908361ffff1602179055505081600201600881819054906101000a900461ffff16809291906112429061256b565b91906101000a81548161ffff021916908361ffff1602179055505061126683611a03565b5b505050505050565b611277611660565b73ffffffffffffffffffffffffffffffffffffffff16611295610e6b565b73ffffffffffffffffffffffffffffffffffffffff16146112eb576040517f08c379a00000000000000000000000000000000000000000000000000000000081526004016112e29061246e565b60405180910390fd5b600073ffffffffffffffffffffffffffffffffffffffff168173ffffffffffffffffffffffffffffffffffffffff16141561135b576040517f08c379a000000000000000000000000000000000000000000000000000000000815260040161135290612608565b60405180910390fd5b61136481611668565b50565b826005600082815260200190815260200160002060009054906101000a900473ffffffffffffffffffffffffffffffffffffffff1673ffffffffffffffffffffffffffffffffffffffff163373ffffffffffffffffffffffffffffffffffffffff16146113d357600080fd5b6000600485815481106113e9576113e861220a565b5b9060005260206000209060030201905061140281611a36565b61140b57600080fd5b600254846114199190612506565b93506000600285836001015461142f9190612628565b611439919061267e565b905060405160200161144a90612706565b6040516020818303038152906040528051906020012084604051602001611471919061274c565b6040516020818303038152906040528051906020012014156114b457606360648261149c9190612506565b826114a79190612537565b6114b19190612628565b90505b6114f36040518060400160405280600681526020017f4e6f4e616d65000000000000000000000000000000000000000000000000000081525082611771565b6114fc82611a03565b505050505050565b600660008373ffffffffffffffffffffffffffffffffffffffff1673ffffffffffffffffffffffffffffffffffffffff16815260200190815260200160002060008154809291906115549061248e565b9190505550600660003373ffffffffffffffffffffffffffffffffffffffff1673ffffffffffffffffffffffffffffffffffffffff16815260200190815260200160002060008154809291906115a990612763565b9190505550816005600083815260200190815260200160002060006101000a81548173ffffffffffffffffffffffffffffffffffffffff021916908373ffffffffffffffffffffffffffffffffffffffff160217905550808273ffffffffffffffffffffffffffffffffffffffff168473ffffffffffffffffffffffffffffffffffffffff167fddf252ad1be2c89b69c2b068fc378daa952ba7f163c4a11628f55a4df523b3ef60405160405180910390a4505050565b600033905090565b60008060009054906101000a900473ffffffffffffffffffffffffffffffffffffffff169050816000806101000a81548173ffffffffffffffffffffffffffffffffffffffff021916908373ffffffffffffffffffffffffffffffffffffffff1602179055508173ffffffffffffffffffffffffffffffffffffffff168173ffffffffffffffffffffffffffffffffffffffff167f8be0079c531659141344cd1fd0a4f28419497f9722a3daafe3b4186f6b6457e060405160405180910390a35050565b60008082604051602001611740919061274c565b6040516020818303038152906040528051906020012060001c9050600254816117699190612506565b915050919050565b60046040518060c00160405280848152602001838152602001600163ffffffff168152602001600354426117a59190612628565b63ffffffff168152602001600061ffff168152602001600061ffff1681525090806001815401808255809150506001900390600052602060002090600302016000909190919091506000820151816000019080519060200190611809929190611ae3565b506020820151816001015560408201518160020160006101000a81548163ffffffff021916908363ffffffff16021790555060608201518160020160046101000a81548163ffffffff021916908363ffffffff16021790555060808201518160020160086101000a81548161ffff021916908361ffff16021790555060a082015181600201600a6101000a81548161ffff021916908361ffff1602179055505050600060016004805490506118be9190612537565b9050336005600083815260200190815260200160002060006101000a81548173ffffffffffffffffffffffffffffffffffffffff021916908373ffffffffffffffffffffffffffffffffffffffff160217905550600660003373ffffffffffffffffffffffffffffffffffffffff1673ffffffffffffffffffffffffffffffffffffffff16815260200190815260200160002060008154809291906119629061248e565b91905055507f88f026aacbbecc90c18411df4b1185fd8d9be2470f1962f192bf84a27d0704b781848460405161199a9392919061278d565b60405180910390a1505050565b6000600960008154809291906119bc9061248e565b91905055508142336009546040516020016119d993929190612834565b6040516020818303038152906040528051906020012060001c6119fc9190612506565b9050919050565b60035442611a119190612628565b8160020160046101000a81548163ffffffff021916908363ffffffff16021790555050565b6000428260020160049054906101000a900463ffffffff1663ffffffff1611159050919050565b828054611a69906123f0565b90600052602060002090601f016020900481019282611a8b5760008555611ad2565b82601f10611aa457803560ff1916838001178555611ad2565b82800160010185558215611ad2579182015b82811115611ad1578235825591602001919060010190611ab6565b5b509050611adf9190611b69565b5090565b828054611aef906123f0565b90600052602060002090601f016020900481019282611b115760008555611b58565b82601f10611b2a57805160ff1916838001178555611b58565b82800160010185558215611b58579182015b82811115611b57578251825591602001919060010190611b3c565b5b509050611b659190611b69565b5090565b5b80821115611b82576000816000905550600101611b6a565b5090565b6000604051905090565b600080fd5b600080fd5b600073ffffffffffffffffffffffffffffffffffffffff82169050919050565b6000611bc582611b9a565b9050919050565b611bd581611bba565b8114611be057600080fd5b50565b600081359050611bf281611bcc565b92915050565b6000819050919050565b611c0b81611bf8565b8114611c1657600080fd5b50565b600081359050611c2881611c02565b92915050565b60008060408385031215611c4557611c44611b90565b5b6000611c5385828601611be3565b9250506020611c6485828601611c19565b9150509250929050565b600060208284031215611c8457611c83611b90565b5b6000611c9284828501611c19565b91505092915050565b60008060408385031215611cb257611cb1611b90565b5b6000611cc085828601611c19565b9250506020611cd185828601611c19565b9150509250929050565b600081519050919050565b600082825260208201905092915050565b60005b83811015611d15578082015181840152602081019050611cfa565b83811115611d24576000848401525b50505050565b6000601f19601f8301169050919050565b6000611d4682611cdb565b611d508185611ce6565b9350611d60818560208601611cf7565b611d6981611d2a565b840191505092915050565b611d7d81611bf8565b82525050565b600063ffffffff82169050919050565b611d9c81611d83565b82525050565b600061ffff82169050919050565b611db981611da2565b82525050565b600060c0820190508181036000830152611dd98189611d3b565b9050611de86020830188611d74565b611df56040830187611d93565b611e026060830186611d93565b611e0f6080830185611db0565b611e1c60a0830184611db0565b979650505050505050565b600080600060608486031215611e4057611e3f611b90565b5b6000611e4e86828701611be3565b9350506020611e5f86828701611be3565b9250506040611e7086828701611c19565b9150509250925092565b600060208284031215611e9057611e8f611b90565b5b6000611e9e84828501611be3565b91505092915050565b600081519050919050565b600082825260208201905092915050565b6000819050602082019050919050565b611edc81611bf8565b82525050565b6000611eee8383611ed3565b60208301905092915050565b6000602082019050919050565b6000611f1282611ea7565b611f1c8185611eb2565b9350611f2783611ec3565b8060005b83811015611f58578151611f3f8882611ee2565b9750611f4a83611efa565b925050600181019050611f2b565b5085935050505092915050565b60006020820190508181036000830152611f7f8184611f07565b905092915050565b611f9081611bba565b82525050565b6000602082019050611fab6000830184611f87565b92915050565b6000602082019050611fc66000830184611d74565b92915050565b600080fd5b600080fd5b7f4e487b7100000000000000000000000000000000000000000000000000000000600052604160045260246000fd5b61200e82611d2a565b810181811067ffffffffffffffff8211171561202d5761202c611fd6565b5b80604052505050565b6000612040611b86565b905061204c8282612005565b919050565b600067ffffffffffffffff82111561206c5761206b611fd6565b5b61207582611d2a565b9050602081019050919050565b82818337600083830152505050565b60006120a461209f84612051565b612036565b9050828152602081018484840111156120c0576120bf611fd1565b5b6120cb848285612082565b509392505050565b600082601f8301126120e8576120e7611fcc565b5b81356120f8848260208601612091565b91505092915050565b60006020828403121561211757612116611b90565b5b600082013567ffffffffffffffff81111561213557612134611b95565b5b612141848285016120d3565b91505092915050565b600080fd5b600080fd5b60008083601f84011261216a57612169611fcc565b5b8235905067ffffffffffffffff8111156121875761218661214a565b5b6020830191508360018202830111156121a3576121a261214f565b5b9250929050565b6000806000604084860312156121c3576121c2611b90565b5b60006121d186828701611c19565b935050602084013567ffffffffffffffff8111156121f2576121f1611b95565b5b6121fe86828701612154565b92509250509250925092565b7f4e487b7100000000000000000000000000000000000000000000000000000000600052603260045260246000fd5b7f4e487b7100000000000000000000000000000000000000000000000000000000600052601160045260246000fd5b600061227382611d83565b915063ffffffff82141561228a57612289612239565b5b600182019050919050565b60008115159050919050565b6122aa81612295565b81146122b557600080fd5b50565b6000815190506122c7816122a1565b92915050565b6000815190506122dc81611c02565b92915050565b6000806000806000806000806000806101408b8d03121561230657612305611b90565b5b60006123148d828e016122b8565b9a505060206123258d828e016122b8565b99505060406123368d828e016122cd565b98505060606123478d828e016122cd565b97505060806123588d828e016122cd565b96505060a06123698d828e016122cd565b95505060c061237a8d828e016122cd565b94505060e061238b8d828e016122cd565b93505061010061239d8d828e016122cd565b9250506101206123af8d828e016122cd565b9150509295989b9194979a5092959850565b7f4e487b7100000000000000000000000000000000000000000000000000000000600052602260045260246000fd5b6000600282049050600182168061240857607f821691505b6020821081141561241c5761241b6123c1565b5b50919050565b7f4f776e61626c653a2063616c6c6572206973206e6f7420746865206f776e6572600082015250565b6000612458602083611ce6565b915061246382612422565b602082019050919050565b600060208201905081810360008301526124878161244b565b9050919050565b600061249982611bf8565b91507fffffffffffffffffffffffffffffffffffffffffffffffffffffffffffffffff8214156124cc576124cb612239565b5b600182019050919050565b7f4e487b7100000000000000000000000000000000000000000000000000000000600052601260045260246000fd5b600061251182611bf8565b915061251c83611bf8565b92508261252c5761252b6124d7565b5b828206905092915050565b600061254282611bf8565b915061254d83611bf8565b9250828210156125605761255f612239565b5b828203905092915050565b600061257682611da2565b915061ffff82141561258b5761258a612239565b5b600182019050919050565b7f4f776e61626c653a206e6577206f776e657220697320746865207a65726f206160008201527f6464726573730000000000000000000000000000000000000000000000000000602082015250565b60006125f2602683611ce6565b91506125fd82612596565b604082019050919050565b60006020820190508181036000830152612621816125e5565b9050919050565b600061263382611bf8565b915061263e83611bf8565b9250827fffffffffffffffffffffffffffffffffffffffffffffffffffffffffffffffff0382111561267357612672612239565b5b828201905092915050565b600061268982611bf8565b915061269483611bf8565b9250826126a4576126a36124d7565b5b828204905092915050565b600081905092915050565b7f6b69747479000000000000000000000000000000000000000000000000000000600082015250565b60006126f06005836126af565b91506126fb826126ba565b600582019050919050565b6000612711826126e3565b9150819050919050565b600061272682611cdb565b61273081856126af565b9350612740818560208601611cf7565b80840191505092915050565b6000612758828461271b565b915081905092915050565b600061276e82611bf8565b9150600082141561278257612781612239565b5b600182039050919050565b60006060820190506127a26000830186611d74565b81810360208301526127b48185611d3b565b90506127c36040830184611d74565b949350505050565b6000819050919050565b6127e66127e182611bf8565b6127cb565b82525050565b60008160601b9050919050565b6000612804826127ec565b9050919050565b6000612816826127f9565b9050919050565b61282e61282982611bba565b61280b565b82525050565b600061284082866127d5565b602082019150612850828561281d565b60148201915061286082846127d5565b60208201915081905094935050505056fea26469706673582212204777ce1c211fc365021ede5ebe371a3767ec76d27aa9cb6888f886cfbf4d119364736f6c634300080c0033",
  "immutableReferences": {},
  "source": "// SPDX-License-Identifier: MIT\n\npragma solidity >=0.8.0 <0.9.0;\n\nimport \"./zombieownership.sol\";\n\ncontract CryptoZombies is ZombieOwnership {\n\n}\n",
  "sourcePath": "/Users/lidoking/Desktop/Coding/Blockchain/CryptoZombiesEatLido/contracts/main/cryptozombies.sol",
  "compiler": {
    "name": "solc",
    "version": "0.8.12+commit.f00d7308.Emscripten.clang"
  },
  "schemaVersion": "3.4.5",
  "updatedAt": "2022-02-19T03:56:33.695Z",
  "devdoc": {
    "kind": "dev",
    "methods": {
      "owner()": {
        "details": "Returns the address of the current owner."
      },
      "renounceOwnership()": {
        "details": "Leaves the contract without owner. It will not be possible to call `onlyOwner` functions anymore. Can only be called by the current owner. NOTE: Renouncing ownership will leave the contract without an owner, thereby removing any functionality that is only available to the owner."
      },
      "transferOwnership(address)": {
        "details": "Transfers ownership of the contract to a new account (`newOwner`). Can only be called by the current owner."
      }
    },
    "version": 1
  },
  "userdoc": {
    "kind": "user",
    "methods": {},
    "version": 1
  }
}