{
  "contractName": "ZombieAttack",
  "abi": [
    {
      "anonymous": false,
      "inputs": [
        {
          "indexed": false,
          "internalType": "uint256",
          "name": "zombieId",
          "type": "uint256"
        },
        {
          "indexed": false,
          "internalType": "string",
          "name": "name",
          "type": "string"
        },
        {
          "indexed": false,
          "internalType": "uint256",
          "name": "dna",
          "type": "uint256"
        }
      ],
      "name": "NewZombie",
      "type": "event"
    },
    {
      "anonymous": false,
      "inputs": [
        {
          "indexed": true,
          "internalType": "address",
          "name": "previousOwner",
          "type": "address"
        },
        {
          "indexed": true,
          "internalType": "address",
          "name": "newOwner",
          "type": "address"
        }
      ],
      "name": "OwnershipTransferred",
      "type": "event"
    },
    {
      "inputs": [
        {
          "internalType": "uint256",
          "name": "_zombieId",
          "type": "uint256"
        },
        {
          "internalType": "uint256",
          "name": "_newDna",
          "type": "uint256"
        }
      ],
      "name": "changeDna",
      "outputs": [],
      "stateMutability": "nonpayable",
      "type": "function"
    },
    {
      "inputs": [
        {
          "internalType": "uint256",
          "name": "_zombieId",
          "type": "uint256"
        },
        {
          "internalType": "string",
          "name": "_newName",
          "type": "string"
        }
      ],
      "name": "changeName",
      "outputs": [],
      "stateMutability": "nonpayable",
      "type": "function"
    },
    {
      "inputs": [
        {
          "internalType": "string",
          "name": "_name",
          "type": "string"
        }
      ],
      "name": "createRandomZombie",
      "outputs": [],
      "stateMutability": "nonpayable",
      "type": "function"
    },
    {
      "inputs": [
        {
          "internalType": "uint256",
          "name": "_zombieId",
          "type": "uint256"
        },
        {
          "internalType": "uint256",
          "name": "_kittyId",
          "type": "uint256"
        }
      ],
      "name": "feedOnKitty",
      "outputs": [],
      "stateMutability": "nonpayable",
      "type": "function"
    },
    {
      "inputs": [
        {
          "internalType": "address",
          "name": "_owner",
          "type": "address"
        }
      ],
      "name": "getZombiesByOwner",
      "outputs": [
        {
          "internalType": "uint256[]",
          "name": "",
          "type": "uint256[]"
        }
      ],
      "stateMutability": "view",
      "type": "function"
    },
    {
      "inputs": [
        {
          "internalType": "uint256",
          "name": "_zombieId",
          "type": "uint256"
        }
      ],
      "name": "levelUp",
      "outputs": [],
      "stateMutability": "payable",
      "type": "function"
    },
    {
      "inputs": [],
      "name": "owner",
      "outputs": [
        {
          "internalType": "address",
          "name": "",
          "type": "address"
        }
      ],
      "stateMutability": "view",
      "type": "function"
    },
    {
      "inputs": [],
      "name": "renounceOwnership",
      "outputs": [],
      "stateMutability": "nonpayable",
      "type": "function"
    },
    {
      "inputs": [
        {
          "internalType": "address",
          "name": "_address",
          "type": "address"
        }
      ],
      "name": "setKittyContractAddress",
      "outputs": [],
      "stateMutability": "nonpayable",
      "type": "function"
    },
    {
      "inputs": [
        {
          "internalType": "uint256",
          "name": "_fee",
          "type": "uint256"
        }
      ],
      "name": "setLevelUpFee",
      "outputs": [],
      "stateMutability": "nonpayable",
      "type": "function"
    },
    {
      "inputs": [
        {
          "internalType": "address",
          "name": "newOwner",
          "type": "address"
        }
      ],
      "name": "transferOwnership",
      "outputs": [],
      "stateMutability": "nonpayable",
      "type": "function"
    },
    {
      "inputs": [],
      "name": "withdraw",
      "outputs": [],
      "stateMutability": "payable",
      "type": "function"
    },
    {
      "inputs": [
        {
          "internalType": "uint256",
          "name": "",
          "type": "uint256"
        }
      ],
      "name": "zombieToOwner",
      "outputs": [
        {
          "internalType": "address",
          "name": "",
          "type": "address"
        }
      ],
      "stateMutability": "view",
      "type": "function"
    },
    {
      "inputs": [
        {
          "internalType": "uint256",
          "name": "",
          "type": "uint256"
        }
      ],
      "name": "zombies",
      "outputs": [
        {
          "internalType": "string",
          "name": "name",
          "type": "string"
        },
        {
          "internalType": "uint256",
          "name": "dna",
          "type": "uint256"
        },
        {
          "internalType": "uint32",
          "name": "level",
          "type": "uint32"
        },
        {
          "internalType": "uint32",
          "name": "readyTime",
          "type": "uint32"
        },
        {
          "internalType": "uint16",
          "name": "winCount",
          "type": "uint16"
        },
        {
          "internalType": "uint16",
          "name": "lossCount",
          "type": "uint16"
        }
      ],
      "stateMutability": "view",
      "type": "function"
    },
    {
      "inputs": [
        {
          "internalType": "uint256",
          "name": "_zombieId",
          "type": "uint256"
        },
        {
          "internalType": "uint256",
          "name": "_targetId",
          "type": "uint256"
        }
      ],
      "name": "attack",
      "outputs": [],
      "stateMutability": "nonpayable",
      "type": "function"
    }
  ],
  "bytecode": "0x60806040526010600155600154600a6200001a9190620002c6565b6002556201518060035566038d7ea4c6800060085560006009556046600a553480156200004657600080fd5b50620000676200005b6200006d60201b60201c565b6200007560201b60201c565b62000317565b600033905090565b60008060009054906101000a900473ffffffffffffffffffffffffffffffffffffffff169050816000806101000a81548173ffffffffffffffffffffffffffffffffffffffff021916908373ffffffffffffffffffffffffffffffffffffffff1602179055508173ffffffffffffffffffffffffffffffffffffffff168173ffffffffffffffffffffffffffffffffffffffff167f8be0079c531659141344cd1fd0a4f28419497f9722a3daafe3b4186f6b6457e060405160405180910390a35050565b7f4e487b7100000000000000000000000000000000000000000000000000000000600052601160045260246000fd5b60008160011c9050919050565b6000808291508390505b6001851115620001c7578086048111156200019f576200019e62000139565b5b6001851615620001af5780820291505b8081029050620001bf8562000168565b94506200017f565b94509492505050565b600082620001e25760019050620002b5565b81620001f25760009050620002b5565b81600181146200020b576002811462000216576200024c565b6001915050620002b5565b60ff8411156200022b576200022a62000139565b5b8360020a91508482111562000245576200024462000139565b5b50620002b5565b5060208310610133831016604e8410600b8410161715620002865782820a90508381111562000280576200027f62000139565b5b620002b5565b62000295848484600162000175565b92509050818404811115620002af57620002ae62000139565b5b81810290505b9392505050565b6000819050919050565b6000620002d382620002bc565b9150620002e083620002bc565b92506200030f7fffffffffffffffffffffffffffffffffffffffffffffffffffffffffffffffff8484620001d0565b905092915050565b61232880620003276000396000f3fe6080604052600436106100e85760003560e01c80635faf28801161008a578063c39cbef111610059578063c39cbef1146102b5578063ccf670f8146102de578063e1fa763814610307578063f2fde38b14610330576100e8565b80635faf288014610221578063715018a61461024a5780637bff0a01146102615780638da5cb5b1461028a576100e8565b80633ccfd60b116100c65780633ccfd60b146101745780634412e1041461017e578063528b7b8f146101bb5780635f4623f1146101f8576100e8565b80630ce90ec2146100ed57806317a7f4cc146101095780632052465e14610132575b600080fd5b6101076004803603810190610102919061170e565b610359565b005b34801561011557600080fd5b50610130600480360381019061012b919061173b565b6103ce565b005b34801561013e57600080fd5b506101596004803603810190610154919061170e565b6104ec565b60405161016b9695949392919061185f565b60405180910390f35b61017c6105fc565b005b34801561018a57600080fd5b506101a560048036038101906101a09190611925565b6106ce565b6040516101b29190611a10565b60405180910390f35b3480156101c757600080fd5b506101e260048036038101906101dd919061170e565b610821565b6040516101ef9190611a41565b60405180910390f35b34801561020457600080fd5b5061021f600480360381019061021a9190611925565b610854565b005b34801561022d57600080fd5b506102486004803603810190610243919061173b565b610914565b005b34801561025657600080fd5b5061025f6109fc565b005b34801561026d57600080fd5b5061028860048036038101906102839190611b91565b610a84565b005b34801561029657600080fd5b5061029f610b05565b6040516102ac9190611a41565b60405180910390f35b3480156102c157600080fd5b506102dc60048036038101906102d79190611c3a565b610b2e565b005b3480156102ea57600080fd5b506103056004803603810190610300919061170e565b610c22565b005b34801561031357600080fd5b5061032e6004803603810190610329919061173b565b610ca8565b005b34801561033c57600080fd5b5061035760048036038101906103529190611925565b610f09565b005b600854341461036757600080fd5b6004818154811061037b5761037a611c9a565b5b9060005260206000209060030201600201600081819054906101000a900463ffffffff16809291906103ac90611cf8565b91906101000a81548163ffffffff021916908363ffffffff1602179055505050565b6000600760009054906101000a900473ffffffffffffffffffffffffffffffffffffffff1673ffffffffffffffffffffffffffffffffffffffff1663e98b7f4d836040518263ffffffff1660e01b815260040161042b9190611d25565b61014060405180830381865afa158015610449573d6000803e3d6000fd5b505050506040513d601f19601f8201168201806040525081019061046d9190611d8d565b909192939495969798509091929394959697509091929394959650909192939495509091929394509091929350909192509091509050809150506104e783826040518060400160405280600581526020017f6b69747479000000000000000000000000000000000000000000000000000000815250611001565b505050565b600481815481106104fc57600080fd5b906000526020600020906003020160009150905080600001805461051f90611e9b565b80601f016020809104026020016040519081016040528092919081815260200182805461054b90611e9b565b80156105985780601f1061056d57610100808354040283529160200191610598565b820191906000526020600020905b81548152906001019060200180831161057b57829003601f168201915b5050505050908060010154908060020160009054906101000a900463ffffffff16908060020160049054906101000a900463ffffffff16908060020160089054906101000a900461ffff169080600201600a9054906101000a900461ffff16905086565b61060461119e565b73ffffffffffffffffffffffffffffffffffffffff16610622610b05565b73ffffffffffffffffffffffffffffffffffffffff1614610678576040517f08c379a000000000000000000000000000000000000000000000000000000000815260040161066f90611f19565b60405180910390fd5b6000610682610b05565b90508073ffffffffffffffffffffffffffffffffffffffff166108fc479081150290604051600060405180830381858888f193505050501580156106ca573d6000803e3d6000fd5b5050565b60606000600660008473ffffffffffffffffffffffffffffffffffffffff1673ffffffffffffffffffffffffffffffffffffffff1681526020019081526020016000205467ffffffffffffffff81111561072b5761072a611a66565b5b6040519080825280602002602001820160405280156107595781602001602082028036833780820191505090505b5090506000805b600480549050811015610816578473ffffffffffffffffffffffffffffffffffffffff166005600083815260200190815260200160002060009054906101000a900473ffffffffffffffffffffffffffffffffffffffff1673ffffffffffffffffffffffffffffffffffffffff16141561080357808383815181106107e8576107e7611c9a565b5b60200260200101818152505081806107ff90611f39565b9250505b808061080e90611f39565b915050610760565b508192505050919050565b60056020528060005260406000206000915054906101000a900473ffffffffffffffffffffffffffffffffffffffff1681565b61085c61119e565b73ffffffffffffffffffffffffffffffffffffffff1661087a610b05565b73ffffffffffffffffffffffffffffffffffffffff16146108d0576040517f08c379a00000000000000000000000000000000000000000000000000000000081526004016108c790611f19565b60405180910390fd5b80600760006101000a81548173ffffffffffffffffffffffffffffffffffffffff021916908373ffffffffffffffffffffffffffffffffffffffff16021790555050565b601482816004828154811061092c5761092b611c9a565b5b906000526020600020906003020160020160009054906101000a900463ffffffff1663ffffffff16101561095f57600080fd5b836005600082815260200190815260200160002060009054906101000a900473ffffffffffffffffffffffffffffffffffffffff1673ffffffffffffffffffffffffffffffffffffffff163373ffffffffffffffffffffffffffffffffffffffff16146109cb57600080fd5b83600486815481106109e0576109df611c9a565b5b9060005260206000209060030201600101819055505050505050565b610a0461119e565b73ffffffffffffffffffffffffffffffffffffffff16610a22610b05565b73ffffffffffffffffffffffffffffffffffffffff1614610a78576040517f08c379a0000000000000000000000000000000000000000000000000000000008152600401610a6f90611f19565b60405180910390fd5b610a8260006111a6565b565b6000600660003373ffffffffffffffffffffffffffffffffffffffff1673ffffffffffffffffffffffffffffffffffffffff1681526020019081526020016000205414610ad057600080fd5b6000610adb8261126a565b9050606481610aea9190611fb1565b81610af59190611fe2565b9050610b0182826112af565b5050565b60008060009054906101000a900473ffffffffffffffffffffffffffffffffffffffff16905090565b6002838160048281548110610b4657610b45611c9a565b5b906000526020600020906003020160020160009054906101000a900463ffffffff1663ffffffff161015610b7957600080fd5b846005600082815260200190815260200160002060009054906101000a900473ffffffffffffffffffffffffffffffffffffffff1673ffffffffffffffffffffffffffffffffffffffff163373ffffffffffffffffffffffffffffffffffffffff1614610be557600080fd5b848460048881548110610bfb57610bfa611c9a565b5b90600052602060002090600302016000019190610c1992919061159b565b50505050505050565b610c2a61119e565b73ffffffffffffffffffffffffffffffffffffffff16610c48610b05565b73ffffffffffffffffffffffffffffffffffffffff1614610c9e576040517f08c379a0000000000000000000000000000000000000000000000000000000008152600401610c9590611f19565b60405180910390fd5b8060088190555050565b816005600082815260200190815260200160002060009054906101000a900473ffffffffffffffffffffffffffffffffffffffff1673ffffffffffffffffffffffffffffffffffffffff163373ffffffffffffffffffffffffffffffffffffffff1614610d1457600080fd5b600060048481548110610d2a57610d29611c9a565b5b90600052602060002090600302019050600060048481548110610d5057610d4f611c9a565b5b906000526020600020906003020190506000610d6c60646114e5565b9050600a548111610e7d5782600201600881819054906101000a900461ffff1680929190610d9990612016565b91906101000a81548161ffff021916908361ffff1602179055505082600201600081819054906101000a900463ffffffff1680929190610dd890611cf8565b91906101000a81548163ffffffff021916908363ffffffff1602179055505081600201600a81819054906101000a900461ffff1680929190610e1990612016565b91906101000a81548161ffff021916908361ffff16021790555050610e788683600101546040518060400160405280600681526020017f7a6f6d6269650000000000000000000000000000000000000000000000000000815250611001565b610f01565b82600201600a81819054906101000a900461ffff1680929190610e9f90612016565b91906101000a81548161ffff021916908361ffff1602179055505081600201600881819054906101000a900461ffff1680929190610edc90612016565b91906101000a81548161ffff021916908361ffff16021790555050610f0083611541565b5b505050505050565b610f1161119e565b73ffffffffffffffffffffffffffffffffffffffff16610f2f610b05565b73ffffffffffffffffffffffffffffffffffffffff1614610f85576040517f08c379a0000000000000000000000000000000000000000000000000000000008152600401610f7c90611f19565b60405180910390fd5b600073ffffffffffffffffffffffffffffffffffffffff168173ffffffffffffffffffffffffffffffffffffffff161415610ff5576040517f08c379a0000000000000000000000000000000000000000000000000000000008152600401610fec906120b3565b60405180910390fd5b610ffe816111a6565b50565b826005600082815260200190815260200160002060009054906101000a900473ffffffffffffffffffffffffffffffffffffffff1673ffffffffffffffffffffffffffffffffffffffff163373ffffffffffffffffffffffffffffffffffffffff161461106d57600080fd5b60006004858154811061108357611082611c9a565b5b9060005260206000209060030201905061109c81611574565b6110a557600080fd5b600254846110b39190611fb1565b9350600060028583600101546110c991906120d3565b6110d39190612129565b90506040516020016110e4906121b1565b604051602081830303815290604052805190602001208460405160200161110b91906121f7565b60405160208183030381529060405280519060200120141561114e5760636064826111369190611fb1565b826111419190611fe2565b61114b91906120d3565b90505b61118d6040518060400160405280600681526020017f4e6f4e616d650000000000000000000000000000000000000000000000000000815250826112af565b61119682611541565b505050505050565b600033905090565b60008060009054906101000a900473ffffffffffffffffffffffffffffffffffffffff169050816000806101000a81548173ffffffffffffffffffffffffffffffffffffffff021916908373ffffffffffffffffffffffffffffffffffffffff1602179055508173ffffffffffffffffffffffffffffffffffffffff168173ffffffffffffffffffffffffffffffffffffffff167f8be0079c531659141344cd1fd0a4f28419497f9722a3daafe3b4186f6b6457e060405160405180910390a35050565b6000808260405160200161127e91906121f7565b6040516020818303038152906040528051906020012060001c9050600254816112a79190611fb1565b915050919050565b60046040518060c00160405280848152602001838152602001600163ffffffff168152602001600354426112e391906120d3565b63ffffffff168152602001600061ffff168152602001600061ffff1681525090806001815401808255809150506001900390600052602060002090600302016000909190919091506000820151816000019080519060200190611347929190611621565b506020820151816001015560408201518160020160006101000a81548163ffffffff021916908363ffffffff16021790555060608201518160020160046101000a81548163ffffffff021916908363ffffffff16021790555060808201518160020160086101000a81548161ffff021916908361ffff16021790555060a082015181600201600a6101000a81548161ffff021916908361ffff1602179055505050600060016004805490506113fc9190611fe2565b9050336005600083815260200190815260200160002060006101000a81548173ffffffffffffffffffffffffffffffffffffffff021916908373ffffffffffffffffffffffffffffffffffffffff160217905550600660003373ffffffffffffffffffffffffffffffffffffffff1673ffffffffffffffffffffffffffffffffffffffff16815260200190815260200160002060008154809291906114a090611f39565b91905055507f88f026aacbbecc90c18411df4b1185fd8d9be2470f1962f192bf84a27d0704b78184846040516114d89392919061220e565b60405180910390a1505050565b6000600960008154809291906114fa90611f39565b9190505550814233600954604051602001611517939291906122b5565b6040516020818303038152906040528051906020012060001c61153a9190611fb1565b9050919050565b6003544261154f91906120d3565b8160020160046101000a81548163ffffffff021916908363ffffffff16021790555050565b6000428260020160049054906101000a900463ffffffff1663ffffffff1611159050919050565b8280546115a790611e9b565b90600052602060002090601f0160209004810192826115c95760008555611610565b82601f106115e257803560ff1916838001178555611610565b82800160010185558215611610579182015b8281111561160f5782358255916020019190600101906115f4565b5b50905061161d91906116a7565b5090565b82805461162d90611e9b565b90600052602060002090601f01602090048101928261164f5760008555611696565b82601f1061166857805160ff1916838001178555611696565b82800160010185558215611696579182015b8281111561169557825182559160200191906001019061167a565b5b5090506116a391906116a7565b5090565b5b808211156116c05760008160009055506001016116a8565b5090565b6000604051905090565b600080fd5b600080fd5b6000819050919050565b6116eb816116d8565b81146116f657600080fd5b50565b600081359050611708816116e2565b92915050565b600060208284031215611724576117236116ce565b5b6000611732848285016116f9565b91505092915050565b60008060408385031215611752576117516116ce565b5b6000611760858286016116f9565b9250506020611771858286016116f9565b9150509250929050565b600081519050919050565b600082825260208201905092915050565b60005b838110156117b557808201518184015260208101905061179a565b838111156117c4576000848401525b50505050565b6000601f19601f8301169050919050565b60006117e68261177b565b6117f08185611786565b9350611800818560208601611797565b611809816117ca565b840191505092915050565b61181d816116d8565b82525050565b600063ffffffff82169050919050565b61183c81611823565b82525050565b600061ffff82169050919050565b61185981611842565b82525050565b600060c082019050818103600083015261187981896117db565b90506118886020830188611814565b6118956040830187611833565b6118a26060830186611833565b6118af6080830185611850565b6118bc60a0830184611850565b979650505050505050565b600073ffffffffffffffffffffffffffffffffffffffff82169050919050565b60006118f2826118c7565b9050919050565b611902816118e7565b811461190d57600080fd5b50565b60008135905061191f816118f9565b92915050565b60006020828403121561193b5761193a6116ce565b5b600061194984828501611910565b91505092915050565b600081519050919050565b600082825260208201905092915050565b6000819050602082019050919050565b611987816116d8565b82525050565b6000611999838361197e565b60208301905092915050565b6000602082019050919050565b60006119bd82611952565b6119c7818561195d565b93506119d28361196e565b8060005b83811015611a035781516119ea888261198d565b97506119f5836119a5565b9250506001810190506119d6565b5085935050505092915050565b60006020820190508181036000830152611a2a81846119b2565b905092915050565b611a3b816118e7565b82525050565b6000602082019050611a566000830184611a32565b92915050565b600080fd5b600080fd5b7f4e487b7100000000000000000000000000000000000000000000000000000000600052604160045260246000fd5b611a9e826117ca565b810181811067ffffffffffffffff82111715611abd57611abc611a66565b5b80604052505050565b6000611ad06116c4565b9050611adc8282611a95565b919050565b600067ffffffffffffffff821115611afc57611afb611a66565b5b611b05826117ca565b9050602081019050919050565b82818337600083830152505050565b6000611b34611b2f84611ae1565b611ac6565b905082815260208101848484011115611b5057611b4f611a61565b5b611b5b848285611b12565b509392505050565b600082601f830112611b7857611b77611a5c565b5b8135611b88848260208601611b21565b91505092915050565b600060208284031215611ba757611ba66116ce565b5b600082013567ffffffffffffffff811115611bc557611bc46116d3565b5b611bd184828501611b63565b91505092915050565b600080fd5b600080fd5b60008083601f840112611bfa57611bf9611a5c565b5b8235905067ffffffffffffffff811115611c1757611c16611bda565b5b602083019150836001820283011115611c3357611c32611bdf565b5b9250929050565b600080600060408486031215611c5357611c526116ce565b5b6000611c61868287016116f9565b935050602084013567ffffffffffffffff811115611c8257611c816116d3565b5b611c8e86828701611be4565b92509250509250925092565b7f4e487b7100000000000000000000000000000000000000000000000000000000600052603260045260246000fd5b7f4e487b7100000000000000000000000000000000000000000000000000000000600052601160045260246000fd5b6000611d0382611823565b915063ffffffff821415611d1a57611d19611cc9565b5b600182019050919050565b6000602082019050611d3a6000830184611814565b92915050565b60008115159050919050565b611d5581611d40565b8114611d6057600080fd5b50565b600081519050611d7281611d4c565b92915050565b600081519050611d87816116e2565b92915050565b6000806000806000806000806000806101408b8d031215611db157611db06116ce565b5b6000611dbf8d828e01611d63565b9a50506020611dd08d828e01611d63565b9950506040611de18d828e01611d78565b9850506060611df28d828e01611d78565b9750506080611e038d828e01611d78565b96505060a0611e148d828e01611d78565b95505060c0611e258d828e01611d78565b94505060e0611e368d828e01611d78565b935050610100611e488d828e01611d78565b925050610120611e5a8d828e01611d78565b9150509295989b9194979a5092959850565b7f4e487b7100000000000000000000000000000000000000000000000000000000600052602260045260246000fd5b60006002820490506001821680611eb357607f821691505b60208210811415611ec757611ec6611e6c565b5b50919050565b7f4f776e61626c653a2063616c6c6572206973206e6f7420746865206f776e6572600082015250565b6000611f03602083611786565b9150611f0e82611ecd565b602082019050919050565b60006020820190508181036000830152611f3281611ef6565b9050919050565b6000611f44826116d8565b91507fffffffffffffffffffffffffffffffffffffffffffffffffffffffffffffffff821415611f7757611f76611cc9565b5b600182019050919050565b7f4e487b7100000000000000000000000000000000000000000000000000000000600052601260045260246000fd5b6000611fbc826116d8565b9150611fc7836116d8565b925082611fd757611fd6611f82565b5b828206905092915050565b6000611fed826116d8565b9150611ff8836116d8565b92508282101561200b5761200a611cc9565b5b828203905092915050565b600061202182611842565b915061ffff82141561203657612035611cc9565b5b600182019050919050565b7f4f776e61626c653a206e6577206f776e657220697320746865207a65726f206160008201527f6464726573730000000000000000000000000000000000000000000000000000602082015250565b600061209d602683611786565b91506120a882612041565b604082019050919050565b600060208201905081810360008301526120cc81612090565b9050919050565b60006120de826116d8565b91506120e9836116d8565b9250827fffffffffffffffffffffffffffffffffffffffffffffffffffffffffffffffff0382111561211e5761211d611cc9565b5b828201905092915050565b6000612134826116d8565b915061213f836116d8565b92508261214f5761214e611f82565b5b828204905092915050565b600081905092915050565b7f6b69747479000000000000000000000000000000000000000000000000000000600082015250565b600061219b60058361215a565b91506121a682612165565b600582019050919050565b60006121bc8261218e565b9150819050919050565b60006121d18261177b565b6121db818561215a565b93506121eb818560208601611797565b80840191505092915050565b600061220382846121c6565b915081905092915050565b60006060820190506122236000830186611814565b818103602083015261223581856117db565b90506122446040830184611814565b949350505050565b6000819050919050565b612267612262826116d8565b61224c565b82525050565b60008160601b9050919050565b60006122858261226d565b9050919050565b60006122978261227a565b9050919050565b6122af6122aa826118e7565b61228c565b82525050565b60006122c18286612256565b6020820191506122d1828561229e565b6014820191506122e18284612256565b60208201915081905094935050505056fea26469706673582212208d62996b4e4215da97f3b3cb6d0f7100f141e243a9508063617200079219ee3f64736f6c634300080c0033",
  "immutableReferences": {},
  "source": "// SPDX-License-Identifier: MIT\n\npragma solidity >=0.8.0 <0.9.0;\n\nimport \"./zombiehelper.sol\";\n\ncontract ZombieAttack is ZombieHelper {\n  uint randNonce = 0;\n  uint attackVictoryProbability = 70;\n\n  function randMod(uint _modulus) internal returns(uint) {\n    randNonce++;\n    return uint(keccak256(abi.encodePacked(block.timestamp, msg.sender, randNonce))) % _modulus;\n  }\n\n  function attack(uint _zombieId, uint _targetId) external onlyOwnerOf(_zombieId) {\n    Zombie storage myZombie = zombies[_zombieId];\n    Zombie storage enemyZombie = zombies[_targetId];\n    uint rand = randMod(100);\n    if (rand <= attackVictoryProbability) {\n      myZombie.winCount++;\n      myZombie.level++;\n      enemyZombie.lossCount++;\n      feedAndMultiply(_zombieId, enemyZombie.dna, \"zombie\");\n    } else {\n      myZombie.lossCount++;\n      enemyZombie.winCount++;\n      _triggerCooldown(myZombie);\n    }\n  }\n}\n",
  "sourcePath": "/Users/lidoking/Desktop/Coding/Blockchain/CryptoZombiesEatLido/contracts/main/zombieattack.sol",
  "compiler": {
    "name": "solc",
    "version": "0.8.12+commit.f00d7308.Emscripten.clang"
  },
  "schemaVersion": "3.4.5",
  "updatedAt": "2022-02-18T15:16:08.893Z",
  "devdoc": {
    "kind": "dev",
    "methods": {
      "owner()": {
        "details": "Returns the address of the current owner."
      },
      "renounceOwnership()": {
        "details": "Leaves the contract without owner. It will not be possible to call `onlyOwner` functions anymore. Can only be called by the current owner. NOTE: Renouncing ownership will leave the contract without an owner, thereby removing any functionality that is only available to the owner."
      },
      "transferOwnership(address)": {
        "details": "Transfers ownership of the contract to a new account (`newOwner`). Can only be called by the current owner."
      }
    },
    "version": 1
  },
  "userdoc": {
    "kind": "user",
    "methods": {},
    "version": 1
  }
}